:020000040000fa
:080000000002040000000000f2
:020000040000fa
:04000800ba03000037
:020000040000fa
:04000c00ba03000033
:020000040000fa
:04001000ba0300002f
:020000040000fa
:04001400ba0300002b
:020000040000fa
:04001800ba03000027
:020000040000fa
:04001c00ba03000023
:020000040000fa
:04002000ba0300001f
:020000040000fa
:04002400ba0300001b
:020000040000fa
:04002800ba03000017
:020000040000fa
:04002c00ba03000013
:020000040000fa
:04003000ba0300000f
:020000040000fa
:04003400de020000e8
:020000040000fa
:04003800ba03000007
:020000040000fa
:04003c00ba03000003
:020000040000fa
:04004000ba030000ff
:020000040000fa
:04004400ba030000fb
:020000040000fa
:04004800ba030000f7
:020000040000fa
:04004c00ba030000f3
:020000040000fa
:04005000ba030000ef
:020000040000fa
:04005400ba030000eb
:020000040000fa
:04005800ba030000e7
:020000040000fa
:04005c00ba030000e3
:020000040000fa
:04006000ba030000df
:020000040000fa
:04006400ba030000db
:020000040000fa
:04006800ba030000d7
:020000040000fa
:04006c00ba030000d3
:020000040000fa
:04007000ba030000cf
:020000040000fa
:04007400cc020000ba
:020000040000fa
:040078001803000069
:020000040000fa
:04007c00ba030000c3
:020000040000fa
:04008000ba030000bf
:020000040000fa
:04008400ba030000bb
:020000040000fa
:04008800ba030000b7
:020000040000fa
:04008c00ba030000b3
:020000040000fa
:04009000ba030000af
:020000040000fa
:04009400ba030000ab
:020000040000fa
:04009800ba030000a7
:020000040000fa
:04009c00ba030000a3
:020000040000fa
:0400a000ba0300009f
:020000040000fa
:0400a400ba0300009b
:020000040000fa
:0400a800ba03000097
:020000040000fa
:0400ac00ba03000093
:020000040000fa
:0400b000ba0300008f
:020000040000fa
:0400b400ba0300008b
:020000040000fa
:0400b800ba03000087
:020000040000fa
:0400bc00ba03000083
:020000040000fa
:0400c000ba0300007f
:020000040000fa
:0400c400ba0300007b
:020000040000fa
:0400c800ba03000077
:020000040000fa
:0400cc00ba03000073
:020000040000fa
:0400d000ba0300006f
:020000040000fa
:0400d400ba0300006b
:020000040000fa
:0400d800ba03000067
:020000040000fa
:0400dc00ba03000063
:020000040000fa
:0400e000ba0300005f
:020000040000fa
:0400e400ba0300005b
:020000040000fa
:0400e800ba03000057
:020000040000fa
:0400ec00ba03000053
:020000040000fa
:0400f000ba0300004f
:020000040000fa
:0400f400ba0300004b
:020000040000fa
:0400f800ba03000047
:020000040000fa
:0400fc00ba03000043
:020000040000fa
:04010000ba0300003e
:020000040000fa
:04010400ba0300003a
:020000040000fa
:04010800ba03000036
:020000040000fa
:04010c00ba03000032
:020000040000fa
:04011000ba0300002e
:020000040000fa
:04011400ba0300002a
:020000040000fa
:04011800ba03000026
:020000040000fa
:04011c00ba03000022
:020000040000fa
:04012000ba0300001e
:020000040000fa
:04012400ba0300001a
:020000040000fa
:04012800ba03000016
:020000040000fa
:04012c00ba03000012
:020000040000fa
:04013000ba0300000e
:020000040000fa
:04013400ba0300000a
:020000040000fa
:04013800ba03000006
:020000040000fa
:04013c00ba03000002
:020000040000fa
:04014000ba030000fe
:020000040000fa
:04014400ba030000fa
:020000040000fa
:04014800ba030000f6
:020000040000fa
:04014c00ba030000f2
:020000040000fa
:04015000ba030000ee
:020000040000fa
:04015400ba030000ea
:020000040000fa
:04015800ba030000e6
:020000040000fa
:04015c00ba030000e2
:020000040000fa
:04020800ba03000035
:020000040000fa
:04020c00ba03000031
:020000040000fa
:04021000ba0300002d
:020000040000fa
:04021400ba03000029
:020000040000fa
:04021800ba03000025
:020000040000fa
:04021c00ba03000021
:020000040000fa
:04022000ba0300001d
:020000040000fa
:04022400ba03000019
:020000040000fa
:04022800ba03000015
:020000040000fa
:04022c00ba03000011
:020000040000fa
:04023000ba0300000d
:020000040000fa
:04023400de020000e6
:020000040000fa
:04023800ba03000005
:020000040000fa
:04023c00ba03000001
:020000040000fa
:04024000ba030000fd
:020000040000fa
:04024400ba030000f9
:020000040000fa
:04024800ba030000f5
:020000040000fa
:04024c00ba030000f1
:020000040000fa
:04025000ba030000ed
:020000040000fa
:04025400ba030000e9
:020000040000fa
:04025800ba030000e5
:020000040000fa
:04025c00ba030000e1
:020000040000fa
:04026000ba030000dd
:020000040000fa
:04026400ba030000d9
:020000040000fa
:04026800ba030000d5
:020000040000fa
:04026c00ba030000d1
:020000040000fa
:04027000ba030000cd
:020000040000fa
:04027400cc020000b8
:020000040000fa
:040278001803000067
:020000040000fa
:04027c00ba030000c1
:020000040000fa
:04028000ba030000bd
:020000040000fa
:04028400ba030000b9
:020000040000fa
:04028800ba030000b5
:020000040000fa
:04028c00ba030000b1
:020000040000fa
:04029000ba030000ad
:020000040000fa
:04029400ba030000a9
:020000040000fa
:04029800ba030000a5
:020000040000fa
:04029c00ba030000a1
:020000040000fa
:0402a000ba0300009d
:020000040000fa
:0402a400ba03000099
:020000040000fa
:0402a800ba03000095
:020000040000fa
:0402ac00ba03000091
:020000040000fa
:0402b000ba0300008d
:020000040000fa
:0402b400ba03000089
:020000040000fa
:0402b800ba03000085
:020000040000fa
:0402bc00ba03000081
:020000040000fa
:0402c000ba0300007d
:020000040000fa
:0402c400ba03000079
:020000040000fa
:0402c800ba03000075
:020000040000fa
:0402cc00ba03000071
:020000040000fa
:0402d000ba0300006d
:020000040000fa
:0402d400ba03000069
:020000040000fa
:0402d800ba03000065
:020000040000fa
:0402dc00ba03000061
:020000040000fa
:0402e000ba0300005d
:020000040000fa
:0402e400ba03000059
:020000040000fa
:0402e800ba03000055
:020000040000fa
:0402ec00ba03000051
:020000040000fa
:0402f000ba0300004d
:020000040000fa
:0402f400ba03000049
:020000040000fa
:0402f800ba03000045
:020000040000fa
:0402fc00ba03000041
:020000040000fa
:04030000ba0300003c
:020000040000fa
:04030400ba03000038
:020000040000fa
:04030800ba03000034
:020000040000fa
:04030c00ba03000030
:020000040000fa
:04031000ba0300002c
:020000040000fa
:04031400ba03000028
:020000040000fa
:04031800ba03000024
:020000040000fa
:04031c00ba03000020
:020000040000fa
:04032000ba0300001c
:020000040000fa
:04032400ba03000018
:020000040000fa
:04032800ba03000014
:020000040000fa
:04032c00ba03000010
:020000040000fa
:04033000ba0300000c
:020000040000fa
:04033400ba03000008
:020000040000fa
:04033800ba03000004
:020000040000fa
:04033c00ba03000000
:020000040000fa
:04034000ba030000fc
:020000040000fa
:04034400ba030000f8
:020000040000fa
:04034800ba030000f4
:020000040000fa
:04034c00ba030000f0
:020000040000fa
:04035000ba030000ec
:020000040000fa
:04035400ba030000e8
:020000040000fa
:04035800ba030000e4
:020000040000fa
:04035c00ba030000e0
:020000040000fa
:100400000f9720000edf20000e0188000000000082
:10041000000020000000e000020032000001200087
:100420002002880014000700f60007000000e0002a
:1004300003003a00c07622000100200002003700cd
:100440000000200001002000810f70000100320038
:1004500014000700000020000000e000020032004d
:100460000000020000000000de1d0200000000008d
:100470000040da000000fe004440a90020342000c3
:100480000000e0000300320000002000a00188000e
:100490004440a800000006008a1f78008b1f7800e7
:1004a0000000060091018800800478000000eb0045
:1004b0001a003700e284440032a0b4009905ba0063
:1004c000e284440032a0b4009906ba00e2844400f9
:1004d00032a0b4000006eb00476fde00fd07b2005b
:1004e000636ce10003003a00ebff07000000eb0043
:1004f0000a003700606ce10004003a00005deb0088
:100500008b05e900fdff3e00040037006168e10053
:10051000010032000086eb000b00070019c7ba008b
:100520001905ba000e04e00003003a000a00e000da
:10053000e0ff3a0000000600fe07b2009e018800be
:100540008a047800f5ff3700395dba008b05e900b1
:100550000c003200295dba008b05e900080032006a
:100560000c00e00003003a00e284440032a0b40032
:10057000f5ff370019ddba008b05e900faff3a00f4
:100580008904e800e184440032a0b40000000600c1
:1005900000000000000000003400f800881f780010
:1005a00008002000a80188004f0478008660a90098
:1005b0009660a9003400f9000040060000a0fe008b
:1005c0003400f800881f780008002000a801880087
:1005d0004f0478002409ec00204988008460a900b9
:1005e000f1ca230001088800ea0f50000d003a000c
:1005f0002429ef008048800091488000610040007d
:10060000e0804800804888009148880020912000c0
:10061000219220000080e8001008e800810f5000bf
:10062000fcff3a003400f9000080fe0000400600a4
:1006300000a0fe003600f800849fbe00869fbe002a
:10064000889fbe008a1f78003400f8000400200054
:10065000a40188000200fa009680ab003c00320042
:100660008680ab003a0032008680a90020c6b30025
:10067000c90e0700e0ff9f000008a300020032003f
:10068000fa08a900a428ef000038a3002a003200cd
:10069000fac8bf000058a30024003a0041c0b300cc
:1006a00030c7b300a40e070000302000ce0e0700b4
:1006b00000c0e800aae8b70001c4b300814f5000b1
:1006c00013003e00faa8a800180020008844780013
:1006d000aa8a20000030200008004000c20e070057
:1006e00000757c008944e8000984fb00aac8bf00ab
:1006f0000080fb000080e800800f5400f5ff34000c
:1007000011c0b300b0c1b3008b0e07000300370067
:1007100011c0b300b0c1b300870e07008040eb00ea
:1007200030c7b300840e07000300370011c0b300c8
:10073000b0c1b300800e0700eff8970070c06000f2
:100740000300320001c8b30090c5b3007a0e070061
:100750000080fa003400f9004f0578004f04be0015
:100760004f03be004f02be003600f9000080fe00bd
:10077000004006000040da000000fe00889fbe0036
:1007800080047800704b80000000e00005003a0013
:100790000000eb000e0007000084eb000000e0000a
:1007a00008003500784b80000900e00005003200a9
:1007b00009004400060007000000e00001003d00c1
:1007c0000084eb00080078004f04be000000060023
:1007d000800078000100e00003003a0000002000e3
:1007e000704b8800000005000080eb000200200034
:1007f000828f500002003e00714b88000000eb0029
:100800000000060000000500839f68000100e00072
:1008100002003d0060001000e08018000300e000ce
:1008200002003d0060011100e08119004600070050
:100830004f00e00002003b0060001000e080180064
:10084000000006000001be001b0007000470a700a6
:1008500003f0a10003f8a30013003a006509b100fa
:1008600010003200090035006928e100020035005f
:1008700001002800000005000000400081804800c1
:100880008502e900fcff3a0000000600f88f4200f4
:10089000050035008100d1000080d3008502e8000a
:1008a000fcff3a00000006008000eb00000005009d
:1008b0006011b8008c033700c70ade00f107b200f0
:1008c000f50fb20008003200e1cf42000200320012
:1008d0000170a00024000500810f700001003200ab
:1008e0000408050044000500810f700002003a0072
:1008f000140005008502e9000000400081c04800a6
:10090000fcff3b000170a00024000500811f78005f
:100910000100e00002003d0060001000e0801800cf
:100920000300e00002003d0060011100e0811900b9
:10093000150007004f00e00002003b0060001000bf
:10094000e0801800000006006022b80006022000c7
:100950000000d0008180d2000482d2008582d200c3
:100960000000a0000202520083825a0003003100fe
:100970000202420083824a000000a1000603e9004f
:10098000f3ff3a0000000600efff07000400be007e
:100990000000060007f82700078361000638e10021
:1009a00004003a00f7072000878361008703710085
:1009b00001003a0003f0a200889fbe008a9fbe009b
:1009c0008c9fbe00470ade000480a100c71ade002b
:1009d0000580a10007002800078560008785610069
:1009e000f70f20000720e1009e0032000728e100f9
:1009f0009c003200010678000400e000b4003200e0
:100a0000f7072000878060000170a0000500e0006b
:100a1000c0003200f7072000878161000370a0004a
:100a2000050652000f003a000b50e1000b003200a7
:100a30000308e10002003a000200e1007e003200fb
:100a40000204500083845800040031000001fd00be
:100a50008101fd008402fd008a05fd006044b800ac
:100a6000210037000520e10005003d000001fd00e8
:100a70008101fd008402fd008a05fd00050652008b
:100a80007a60e100050035000170a1004722dd0019
:100a9000848070008a807000630037006044b80072
:100aa000ef02660007ff2f00070666000500e00062
:100ab00006003400f08312008714dd000511de000b
:100ac000071bdd00060171008519de007060e10082
:100ad00005003500090478008204780003017800dd
:100ae0008001eb00700656000b50e10003003a0055
:100af00002004000838048000400370060041400b6
:100b0000e0841c0002005800838058000188a30084
:100b1000060032008100d1000080d3008984d30018
:100b20000884d3000402e800270037000178a300fe
:100b300025003a000100e000030032008186cf006a
:100b4000698656000a0037008c0020000000e00093
:100b500004003a0009007800880478000004eb00e3
:100b6000700252008086cf000d0646000c06e90098
:100b70007060e10006003500800078000900780010
:100b8000880478000004eb007006560070025200e2
:100b90000c00e0000c0034008c08dd00f0031600af
:100ba0000703de00868070000c00dd00074bde00ce
:100bb000060070008c4cdd000743de008684740064
:100bc0000c44dd000c0252006120e10020003500e1
:100bd000610160000700280087816400f7ff27009b
:100be00087836400070374000300e00006003200fe
:100bf00082037300040032000000e800e080480037
:100c00000188a3000e003a00f70f20000720e10042
:100c10004a003d000170a1004722dd008100720002
:100c20008a8070000000be004f06be004f05be0067
:100c30004f04be00000006006000b800faff370055
:100c40008100d1000080d3000402e800eeff3700ed
:100c50000401780089017400a10107008a807000f6
:100c6000f1ff3700f7010700070278000001fd00df
:100c70008101fd00f30107008702780085037200ff
:100c80000778a300040032000001fd008101fd008f
:100c900006020700e4ff3700850362000768a3002f
:100ca000080032000b50e10003003200f0ff2f007b
:100cb000f1ff2700dcff37000001fd008101fd008e
:100cc000d9ff37000468a300d7ff3200faff3700ce
:100cd000f8ff2700888360000b003a000000e00066
:100ce00009003a008303640082837300020032002b
:100cf0000200be00ccff37000b50e100ceff3a00ef
:100d00000200be00c8ff370014002000810064000c
:100d10003eff3700f8ff27008883610004003a0097
:100d20000200e00002003a008c007800beff3700ad
:100d3000150020008301640039ff370001f8270007
:100d40000000200081007500b7ff3700889fbe00bb
:100d50008a9fbe008c9fbe001b0020000202be00c6
:100d60000586680006002800060666004709de00c2
:100d7000f20fb200820032000243e800800032002d
:100d8000c729de00f30fb2007d0032000343e80004
:100d90007b003200f107b2000170a000f507b2003d
:100da0000570a000c708dd004903de0086807000e2
:100db0004700dd00c72add004923de00868272007d
:100dc0004722dd00030551000403500085835800cd
:100dd0000300310000004000818048000a05e9005e
:100de0008c1f78008a9fbe00040050008580580048
:100df0000402420085824a000000400081804800d1
:100e00000005eb000004be006033b8000406be001d
:100e10000d48e10056003100110009004dccd8000a
:100e20000c01b8000d02b8008481410060824a00c4
:100e30008283530003045c0084845c0060055d00d1
:100e40000a00e00025003a00800578000d40e1002e
:100e5000490031008800780007007800110009007f
:100e60004d88d8000c01b8000d02b8008481410003
:100e700060824a006003110083835b0004045c000d
:100e8000e0845c000900e00021003a004f01be0050
:100e90000300e0002b003200e3016000070673004e
:100ea0008c81710001003200640070004200de009d
:100eb0004e5edd000c007000c258de0001e0a000b4
:100ec00083010700cf017800818071004f06be00ca
:100ed0004f05be004f04be00000006008c83430097
:100ee0000d044c00e0844c0060054d000000e9005a
:100ef0000a00e000d4ff32008c8343000d044c0054
:100f0000e0844c0060054d000000e900ceff370092
:100f10000c0343008d834b0060044c00e0844c00c4
:100f20000000e9000900e000d8ff32000c03430094
:100f30008d834b0060044c00e0844c000000e9000d
:100f4000d2ff37004200de004e5edd000c00700074
:100f5000c258de0001e0a000cf0178000300e000ed
:100f6000daff320060001000e0801800d7ff370081
:100f7000f0ff2f00aaff3700f0ff2f00b9ff370066
:100f80000404be002f010700870678000004fd005e
:100f90008104fd002b010700078366000678a3008b
:100fa000030032000960a7000800be002c003700d3
:100fb0000d78a300020032000800be0028003700b0
:100fc0000778a30026003a0001f0a10009f0a10073
:100fd0000668a30003003200f1ff2700f0ff2f0096
:100fe000baff37000d68a300030032000800be00fe
:100ff0008c807000b5ff37000768a30007003a0037
:101000000648a30003003200f1ff2700f0ff2f0085
:10101000aeff37000d48a300030032006000b800a7
:101020008c807000a9ff37000748a300040032003d
:1010300001f82700000020008c807000a3ff37001b
:10104000760107000004fd008104fd000205780020
:10105000720107000802be008a01780059ff3700bc
:101060000160a00012022000324b880097ff370079
:101070000100e000120032000500e0001000320024
:10108000889fbe008a9fbe008c9fbe000006eb00ba
:1010900001f8a3000300320060001000e080180097
:1010a0000cf0a00005f8a30003003200600212005b
:1010b000e0821a000cf0a2008005eb0041ff37002f
:1010c0006000b800020005000383680007002800e4
:1010d00007036300470ade000480a100c71ade0090
:1010e0000580a100f70f20000720e1004200320038
:1010f0000728e10040003200889fbe008a9fbe00a2
:101100008c1f7800f107b200f307b2000400e00082
:10111000640032000170a0000500e00068003200a9
:101120000370a00085054200eb07b1000204b8007f
:101130000302b8008484440060854a00020ab800b3
:10114000848444000a854a00030ab8000405450067
:10115000040033000804d0008984d2000a85d2003c
:101160008b05e9006158e1003d00350002102000c8
:10117000090161000308200089816100f707200050
:101180008783640008867300c84cde00c853dd0006
:10119000878474004855de000300e000060032003a
:1011a00082037600040032008904e80060054d00e7
:1011b0000a88a3000c003a00f70f20000758e1004e
:1011c00044003d000a70a100c75ddd000a8575007e
:1011d0008a007300090078004f0678004f05be00b2
:1011e0004f04be00000006000a05d1008984d30028
:1011f0008b05e800f0ff3700881f780006047800b0
:1012000090000700070278000001fd008101fd0049
:101210008c00070087027800850372000778a3001e
:10122000050032000001fd008101fd009f00070064
:101230004f04780000000600850372000748a300f1
:1012400003003200f0ff2f00f1ff2700f8ff370006
:101250000000200001f8270088807000f4ff3700ac
:10126000880178004848dd00808171004848de0030
:10127000c850dd0001007000c850de000604780090
:101280000b0178001600070088807000d2ff37003d
:101290000500e00005003200170020003a000700ba
:1012a0009dff370081037000f9ff3a008600780047
:1012b0004f0678004f05be004f04be000000050039
:1012c00083037100f9ff3200270020002e00070081
:1012d00094ff370001f8270086807000f4ff370084
:1012e0000100e00026003200610111007810e100e9
:1012f00023003c006022b8007010e10004003500bb
:1013000080027800010078008000eb00700151003d
:101310000200e0000900340070031100062add001d
:10132000822ade008603dd00878272000200de0072
:10133000860bdd00070070008208de0084817100ea
:10134000f4ff2700048262008481710004002800f9
:10135000848262006102600005f0a60000000600c1
:1013600004827100070032000000e800e0804800bd
:10137000000006000002be006000b800efff37006a
:101380006000b80000000600889fbe000004eb006b
:101390006138e10016003a000100e00008003a0060
:1013a000c800de004800dd00880020000100e000e9
:1013b00003003a00c800de004800dd006804440075
:1013c0008184cf00e9845400060034008908dd00e0
:1013d000f08314008703de00878070000900dd00c1
:1013e00009044400610214004f04be00000006001e
:1013f0000300e00008003a00c811de004811dd00db
:10140000880020000300e00003003a00c811de005d
:101410004811dd00680444008384cf00e98454004f
:10142000060034008919dd00f08314008713de0004
:10143000878171000911dd0009044400e1021400f4
:10144000e9ff37002700200001f0a7001700200067
:10145000470bde00f60fb200040032000643e8003e
:101460000a0032004702b3000000060001037800c2
:10147000f607b2000603700002003a000703b3004b
:10148000000006008702b300000006000103780098
:10149000f607b20006037000020032000770a000d9
:1014a000000006000760a000000006000478a3000a
:1014b000040032000578a300030032000168a30095
:1014c00001003a000200be000160a000000006001a
:1014d00081017000270032008002eb0001f8a300b8
:1014e0000300320060001000e080180015002000aa
:1014f000f40720000202420020003400f70320001d
:101500008703600006042000000363000208200037
:10151000000161004700de00c909dd0000807100a4
:10152000c708de000600e0000800320087037100f3
:10153000060032001000b0000180b0000188a30056
:1015400002003200c108de000402e800f107b20028
:10155000f30f20000320e10003003d004722dd00df
:10156000810072002900370001f827000000eb001d
:10157000260037006000b800000006006802120074
:101580007f20e100020034006000b8001f00370037
:101590006011b8007020e10004003500800178007f
:1015a000010078008000eb00700252000400e000af
:1015b00009003400f00312000719dd008419de0071
:1015c0000703dd00868171000400de00070bdd00eb
:1015d000060070008408de00f7ff270083836300a5
:1015e0008703710006002800030363000700320030
:1015f0000700e00003003a0061016000028173000f
:10160000020032001000b0000180b0000500a6000a
:101610000000060001f0a000000006004f0ade00f6
:101620004709de00f107b200f20fb2000b003200f2
:10163000f207b1000170a000c708dd00c901de009b
:10164000838070004700dd000400a6000000060053
:1016500060001000e080180000000600810f70009c
:1016600001003a00000006008182cf000500e00082
:1016700010003e008082cf00ee8242007028e10020
:101680000400390007003e00800078000000eb00f5
:101690000e003700708312008600de000500dd00ba
:1016a0000a003700708352008600dd000000eb0066
:1016b00006003700e28252008508dd0070831200c8
:1016c0000603de00868070000500dd007507b000af
:1016d0000501ea000400a6000000060060001000fa
:1016e000e080180000000600889fbe008a9fbe00b0
:1016f0000082700004027100048271002600320032
:101700000004be000200be006011b8006b0920009a
:10171000950220000182cf000a0039000541b10086
:101720000082cf00070039000541b1000982cf00d7
:10173000040039000541b1000882cf0001003900e2
:101740000541b10005425200120032000a003b0080
:1017500082817100610164008100d1000080d300aa
:101760008984d3000884d3008b05e8000442e80094
:10177000f7ff3a00070037000804440089844c0052
:1017800000004800818048008b05e9000442e90020
:10179000f9ff3a00030007004f05be004f04be00ea
:1017a0000000060081002000618055000b003d0014
:1017b0000b00200061fe2f000100e1001d0034003d
:1017c00082817100610164008904d1000884d30022
:1017d0000000e800faff3a00710020006100640098
:1017e0000300700002006000090032006104440040
:1017f000e0844c000988a500050032008b05e80054
:101800006808e10002003a008904d1000884d3008e
:10181000f20f20000258e10005003d00c75ddd0029
:10182000f907b20089807500080078000000060002
:101830000bf827008b00780000000500f2874700b6
:10184000889fbe008a9fbe008c9fbe008e1f7800be
:101850000003be000400200005f82f000002420033
:1018600081824a00f2ff2f00f3f72700820f520017
:10187000838f5a001b003600000140008181480020
:10188000e00f5100e08f590006003a000001be0051
:101890000dfe07000001be000000200001f82b0033
:1018a00008003700e00f5000e08f580007003d00af
:1018b00012022000624b88000001be0035fc0700c8
:1018c0006011b80021fd07007900370002002000f8
:1018d00003c02400fcfd07000003be007efe2f00b5
:1018e0000a003700820f5000838f580070003e00be
:1018f0006000b8000200200003f82300820f5300ac
:10190000838f5b006a0032000007eb00d0b02f002d
:10191000a10420000603400087834800fe07b100b1
:1019200087007800f107b20006007800324f2000ef
:1019300053f3230000004100818049000200200091
:1019400003f82300d6b79f00e7b79f0011fc0700fc
:101950000004be00020020000300240016fc070063
:101960000001be000800be00f8fc07000002be0037
:101970000001be00f4b79f0085bf9f00d2fd0700a5
:101980000006be000001be00cffd07000005be003e
:101990000200200003f023000800be00cafd07007b
:1019a0000801be00c8fd0700b0b79f00c1b79f0087
:1019b0005fb39700efb39700473bde000600470098
:1019c000cf80de008500070090b79f00a1b79f0081
:1019d000e29e2e0013e923000a00be00bafd0700b4
:1019e000a2aa2a00a3f22300f3fb07000001be0015
:1019f0000c00be00b4fd07000006be0062e2290034
:101a000083e723000a00be00affd070032e12c008f
:101a1000c3ec2300e8fb07000001be000a00be0083
:101a2000a9fd07000001be000c00be00e2fb07009c
:101a30000001be003fb09700cfb09700defb07006b
:101a40000001be007fb297008fba97000400be006d
:101a50009dfd07000005be00127d2f00737123005d
:101a60001fb09700afb0970097fd07000001be00c0
:101a70000a00be00d0fb07003fb19700cfb197002e
:101a8000c4fb07000801be00cbfb07000004be003a
:101a90000218270013f323001fb09700afb0970080
:101aa00089fd07000001be000800be00c2fb070060
:101ab0004f0778004f06be004f05be004f04be0022
:101ac0002f01b100000006000200fa00889fbe004e
:101ad0000000e00001003a00100020000004e800cf
:101ae0000800a100504b80000000e8000000a100a9
:101af000504b8800000020000000e0000900320088
:101b0000e10f540001003e0028002000080078008a
:101b10003bf90700290020000000e00022003a0005
:101b2000010037008004eb00504b8000414b8000e7
:101b300000805000800f54001100360008804400df
:101b4000d0bf9f00668057001a0007008000780011
:101b50000000eb000100e000130032000100e8008b
:101b60000000a100414b8000810f500001003200b5
:101b7000504b8800dfb8970001004000404b8800c0
:101b8000514b80000900e0000300320001007800a2
:101b9000081878000100370001007800088444002c
:101ba00088804000514b88004f04be000080fa003e
:101bb00000000600900078000000eb000100e0004b
:101bc0000500350001007800ecfa0700e10f400045
:101bd00001003a000000eb00000006004f89de0023
:101be0008201780000003700881f78000304780025
:101bf0000300e00007003d0060001000e0801800d6
:101c000060011900e081190002003b0001f02d0085
:101c100003003700b4fe070008f0a70001f0a000a1
:081c20004f04780000000600eb
:020000040000fa
:101c28000d0a00000d0a0000436f00006e6e0000f0
:101c380065630000746900006f6e000020200000da
:101c4800202000002050000065650000724c000054
:101c58006f6e000067410000646400007265000058
:101c68007373000020200000202000002050000096
:101c780065650000724900006e6600006f0d000087
:101c88000a00000020200000202000002020000082
:101c9800202000002020000020200000200000005c
:101ca800202000000020000020200000200000006c
:101cb8000d0a000000000000c6ba0000b1a3000031
:101cc80050330000aa560000979100007d6700007d
:101cd800dc22000070b20000150e000007000000b2
:101ce800312a0000231c00004d4600003f38000048
:101cf800696200005b540000857e00007770000078
:101d0800a19a0000938c0000bdb60000afa80000a7
:101d1800d9d20000cbc40000f5ee0000e7e00000d7
:101d2800110a000003fc00002d2600001f18000007
:101d3800494200003b340000655e00005750000037
:101d4800817a0000736c00009d9600008f88000067
:101d5800b9b20000aba40000d5ce0000c7c0000097
:101d6800f1ea0000e3dc00000d060000fff80000c7
:101d7800292200001b140000453e000037300000f7
:101d8800615a0000534c00007d7600006f68000027
:101d9800999200008b840000b5ae0000a7a0000057
:101da800d1ca0000c3bc0000ede60000dfd8000087
:101db80009020000fbf40000251e000017100000b7
:101dc800413a0000332c00005d5600004f480000e7
:101dd800797200006b640000d6900000e9fe0000f4
:101de800cce100003db7000016b6000014c20000a8
:101df80028fb00002c0500002b6700009a760000e5
:101e08002abe000004c30000aa44000013260000f4
:101e180049860000069900009c42000050f400002a
:101e280091ef0000987a0000335400000b43000043
:101e3800edcf0000ac620000e4b300001ca9000074
:101e4800c9080000e895000080df000094fa00004f
:101e5800758f00003fa6000047070000a7fc0000a0
:101e6800f373000017ba0000835900003c19000002
:101e7800e68500004fa80000686b000081b20000f2
:101e880071640000da8b0000f8eb00000f4b0000d3
:101e9800705600009d3500001e2400000e5e0000f4
:101ea80063580000d1a20000252200007c3b0000fe
:101eb8000121000078870000d40000004657000088
:101ec8009fd30000275200004c36000002e70000b4
:101ed800a0c40000c89e0000eabf00008ad200002b
:101ee80040c7000038b50000a3f70000f2ce00009c
:101ef800f961000015a10000e0ae00005da400003b
:101f08009b3400001a550000ad93000032300000e9
:101f1800f58c0000b1e300001df60000e22e000081
:101f280082660000ca600000c029000023ab0000e0
:101f38000d5300004e6f0000d5db00003745000050
:101f4800defd00008e2f000003ff00006a72000013
:101f58006d6c00005b5100008d1b0000af9200000b
:101f6800bbdd0000bc7f000011d900005c4100000f
:101f78001f1000005ad800000ac100003188000074
:101f8800a5cd00007bbd00002d740000d01200001c
:101f9800b8e50000b4b0000089690000974a000065
:101fa8000c960000777e000065b90000f10900007a
:101fb800c56e0000c684000018f000007dec00002b
:101fc8003adc00004d20000079ee00005f3e000082
:101fd800d7cb0000394800000d0a0000003100008e
:101fe8005465000073740000206900006e20000032
:101ff80050720000696e00007453000063720000a4
:10200800656500006e00000050610000636b000011
:102018006574000020230000002000007c200000e0
:10202800004e00006f6400006520000020200000c2
:1020380000200000202000007c2000000054000048
:10204800656d000070200000200000002d2d0000ac
:102058002d2d00002d00000020460000207c0000ef
:10206800200000004c690000676800007420000030
:10207800002000006c78000000540000696d00002a
:1020880065200000003a000000480000756d00005f
:10209800696400006974000079200000002d0000c8
:1020a8002d00000020250000207c000020000000fa
:1020b8000d0a00004c6900006665000074690000a4
:1020c8006d650000205000006f7700006572000009
:1020d8002852000029200000456e000065720000ab
:1020e80067790000204800006172000076650000f2
:1020f80073740000696e00006720000044650000ea
:10210800766500006c6f0000706d0000656e000061
:10211800742000004b69000074200000666f000006
:102128007220000057690000726500006c650000ad
:102138007373000020530000656e0000736f000089
:1021480072730000000d00000a5000006f77000055
:102158006572000063610000737400002043000092
:102168006f720000706f00007261000074690000f7
:102178006f6e0000000d00000a5600006572000036
:10218800736900006f6e0000200000000d0a000057
:10219800536500006c65000063740000696f0000ff
:1021a8006e2000006f660000206300006861000078
:1021b8006e6e0000656c00002000000020690000c1
:1021c800732000006e6f000074200000737500001b
:1021d800707000006f7200007465000064200000d9
:1021e800696e0000206300007572000072650000cf
:1021f8006e740000206300006f6e000064690000c8
:10220800746900006f6e00002e0d00000a000000c7
:102218005465000073740000206900006e200000ff
:1022280069660000206500006e640000005400002c
:102238006573000074200000696e000020500000e3
:10224800726900006e74000053630000726500003c
:10225800656e000062650000666f00007265000030
:10226800000100002345000067890000abcd000095
:10227800effe0000dcba000098760000543200003f
:102288001000000030310000323300003435000007
:10229800363700003839000041420000434400004e
:0422a80045460000a7
:020000040000fa
:1022ac000000000000000600ec8747008e1f78003d
:1022bc0081037800820078000041eb00c2f79f0098
:1022cc0003f0a7008301ea000301ea004f11de00ce
:1022dc00c6ff2f00afb9970006836100060371009b
:1022ec000001780002f0a7000201ea008202e90076
:1022fc00cf2ade00c529dd000650a100068371003f
:10230c0061006000c201dd00060078000020a10021
:10231c0000807100610262004322dd000030a100e8
:10232c00000072008001eb00d3bf9f000201ea00a5
:10233c004f11de00c2bf9f00c62add000060a10065
:10234c00008072000070a0006c875700001f78009e
:10235c00010f7800e7bf9f008683200016437800aa
:10236c000581200007027800150907003868ef0086
:10237c004f077800cf00b100000006000002780083
:10238c008001eb0003017800d14180001000200097
:10239c00c5ff070000000600020278008001eb0078
:1023ac0000017800d141800003007800beff0700d7
:1023bc00000006008081fb0092c0b3000440bc000a
:1023cc0040842000604179000000eb000278a300fb
:1023dc00060032006919b900c083200002004000d9
:1023ec000101780011002000ebff0700000006003f
:1023fc000001eb009041780091cf510009003a00a8
:10240c0067014000d0417800d1cf510004003a0060
:10241c00820f5000fbff3a00120020000100370031
:10242c000001eb00020078000000060080407800fc
:10243c00100020000104e000010032000000eb005d
:10244c00000006003968a9007f070700000006009d
:10245c00881f7800004478008040eb00084078002a
:10246c0018080700800078000000eb000100e00075
:10247c000400320088407800008020000148780079
:10248c00100020004f047800000006000200fa0043
:10249c00881f7800000478003968ef004084200021
:1024ac00e28920008040eb00014878006900400080
:1024bc00820f5000fcff3a00b80a07003868ef00a2
:1024cc0040232100d04188006000b8008195200095
:1024dc000010a0000030a1000040a1000050a1009d
:1024ec000060a000610464004244dd00000178003b
:1024fc000220a100020074000000a1009d09070049
:10250c000080eb00e0bf9f00a18320006480570097
:10251c008d08070000c8bf00cdff070001c8bf0031
:10252c004400dd000004a000a2e8b7009680a800db
:10253c00100020004f0478000080fa000000060014
:10254c00889fbe008a9fbe008c1f780000447800d4
:10255c00e94f540023003e0040e12800e909070040
:10256c008884fb000840780092c0b3000440bc0093
:10257c0040842000604079000078a3003e003200c7
:10258c0008407800f209070060e42800dd09070024
:10259c00694db90030842000000545000044eb0073
:1025ac0049e52800e74f540003003e001a4078002c
:1025bc00e70907000200370009007800d10907007d
:1025cc000844e8000a05e900e84f5400f5ff3a001a
:1025dc0070e52800cb090700c0e52800c9090700f1
:1025ec002500370040e12800c60907000005eb0074
:1025fc00cb8320004ce528000a4078008a04780040
:10260c006951b900e8004100ebc078000178a300e3
:10261c0016003200ce09070060e42800b909070053
:10262c006948b900e70440008b8444000044eb0087
:10263c00e74f540003003e0019407800c40907001e
:10264c00020037000c007800ae0907000844e800cf
:10265c008904e900e84f5400f5ff3a0070e52800c2
:10266c00a8090700c0e52800a60907000a05e8002c
:10267c00ea0f5500e0ff3a004f0678004f05be0008
:10268c004f04be0000000600889fbe008a9fbe005b
:10269c000004eb0080c5eb00c98320000801780022
:1026ac006940b90068004000694078000078a300d8
:1026bc00080032006911b9000281440082007800e0
:1026cc00d04480004aff07000000e0000400320004
:1026dc0008003700e1cf450001003a00884578003a
:1026ec000804e800ea0f5400ecff3a008041eb00cc
:1026fc00020037008845780013c0b300e1cf4500d5
:10270c001e00320001c8bf00e14f50001c003e000b
:10271c00d14480000b82fb000b40780092c0b300c8
:10272c000440bc00b08320000000410068814000e0
:10273c0031687800828f5000fdff3a006922b900a1
:10274c004084200004024000144078000074a00073
:10275c00004a7800e14480008180e80091407800d4
:10276c00e1c060000004a100014a70000b40780039
:10277c00a3e8b7003988a9000100370013cfb300d4
:10278c00034078004f05be004f04be000000060059
:10279c00af0607000000e0007d0032009668ef00f5
:1027ac0010408000c200de00e1806000b244800076
:1027bc000200a100028170008000d100e480600062
:1027cc000220a10002817000e30060000100a20061
:1027dc008100e900cf08de00c408dd000240a10042
:1027ec0002817000c200de000102b2000250a100a2
:1027fc0002817000b24488000078a300020032000d
:10280c000408f8009a08f9008180200091407800b3
:10281c00e28920000149780030408000e0448800c3
:10282c009688ab00470032009040780012c8b30085
:10283c0082cf50000400320012c9b30082cf500086
:10284c003e003a002f003700104090000048e30093
:10285c00020032007c0607003b0037008aff0700ad
:10286c001180200091407800e3cf50000a00320024
:10287c00e2cf500003003a00e24f500006003a004d
:10288c003c003700e1cf500005003a008040e900e1
:10289c00e1cf5000020036006b0607002a0037001b
:1028ac0012c9b300038120008249780011e8b700f7
:1028bc0022c0b3008383200082497800e14f50008e
:1028cc0006003e00238a20009341780020812000de
:1028dc000348780030c0b30038e8b7005a06070048
:1028ec00b44480004222de0061026200130020002a
:1028fc00d2448000d14180000000eb006afe07004a
:10290c001100370010409000e14f500003003600da
:10291c00e24f500007003a00020037005aff070050
:10292c000400370039c8bf000058a3000100320072
:10293c0039a8a90044060700030037003968a8002d
:10294c00010037003968a8009e48e20006003200fa
:10295c0039c8bf000048a30003003a0039c8bf00c3
:10296c000058a3000a0032003968a9003606070097
:10297c000700370013c9b300028120000349780017
:10298c0011e8b70020c0b30038e8b700d3ff370018
:10299c00000006007eff070039c8bf004300de00c0
:1029ac006100600000000600e8874700889fbe00b9
:1029bc008a9fbe008c9fbe008e1f78001280200064
:1029cc001241780082f79f0000c0eb00e1cf50006d
:1029dc003e0032007480570074090700cabd200005
:1029ec00fbff2f006fb09700ffb09700000545006c
:1029fc0081854d000168ef003988a8000044eb0088
:102a0c0039c0b3004c422f000d0020001ec8b3008b
:102a1c002500370074805700640907006fb09700d9
:102a2c00ffb097000a0150008b8158008c0f5100a9
:102a3c008d8f59001b0036000005be000804e00015
:102a4c00020032000844e900170037000904e000d6
:102a5c001d0032008944e900018120008e48780075
:102a6c0001802000914078001281200001497800fb
:102a7c00218a2000914078002281200001497800b1
:102a8c0030c0b30038e8b7000002eb0013002000a0
:102a9c0004017800d14180000300780002fe070099
:102aac0018c0b3003aff070039c8bf000048a300a4
:102abc00d8ff3a008ff09700108020000148780072
:102acc00a3c8bf000100370000c0eb004f0778001f
:102adc004f06be004f05be004f04be008f00b10074
:102aec0000000600e34f500007003e0001e8b7006d
:102afc004400dd00218a200091407800efc0600086
:102b0c0001407000a2e8b700000006008008eb004e
:102b1c00b1107800820120003082fb008002eb00b3
:102b2c00820178008301e9000300330004024200b3
:102b3c0085824a00fbff370091186a0091906a0069
:102b4c0068015100e80f4100f3ff3a000000060055
:102b5c00881f780002047800f0e528006908070057
:102b6c00f0e5280067080700f0e528006508070075
:102b7c00f0e528006308070064044400004ceb00f7
:102b8c004f047800000006000002be0082017800ad
:102b9c008301e900030033000402420085824a00ed
:102bac00fbff370003022000028151000201e90003
:102bbc00030033008100d1000080d300fbff3700fd
:102bcc000400700085807000000006000c00fa0004
:102bdc00889fbe008a9fbe006022b800e4b79f00a9
:102bec00f5b79f007481570004a9be00a4bf9f00d5
:102bfc00b5bf9f00d6ff070071805700ed805700ce
:102c0c000102780003ef28005081fb00e368790093
:102c1c00840f5000fcff3a00f48057006c80570082
:102c2c00baff07006fb49700ffb49700d2002000e2
:102c3c000800be00d4ff07000005be007201200092
:102c4c000800be00d0ff070000006d0081806d0001
:102c5c0008006800898068004f05be004f04be0064
:102c6c000080fa00000006001000fa00889fbe00e9
:102c7c008a9fbe008c9fbe006022b800a4b79f0044
:102c8c00b5b79f007c81570004a9be00e4b79f0034
:102c9c00f5b79f00aeff070079805700f58057000d
:102cac000102780003ef28005081fb00e3687900f3
:102cbc00840f5000fcff3a00fc80570074805700d2
:102ccc0092ff07002fb49700bfb49700220020009a
:102cdc000800be00acff07000005be00a2002000eb
:102cec000800be00a8ff07000006be00220120005d
:102cfc000800be00a4ff070080bf9f0091bf9f008b
:102d0c00820120000800be009fff07000c056d002b
:102d1c008d856d0008046d0089846d000fba9700d5
:102d2c009fba970004046c0085846c0000006c0052
:102d3c0081806c004f06be004f05be004f04be00e4
:102d4c000080fa0000000600cf13b000889fbe0080
:102d5c008a9fbe008c9fbe008e1f7800f0b79f002c
:102d6c00c1ef9f00020478002003200053fb0700f2
:102d7c0080bf9f00d0b79f008f0078008114b100f6
:102d8c00070009008018eb000f0178008213b100d6
:102d9c00470009000019eb008f017800830ab1008d
:102dac00470009008019eb0081eb2f008f80400059
:102dbc000800780055ff070064004400c1eb2f00a9
:102dcc008f80400051ff07006800440001ec2f0089
:102ddc008f8040004dff07006c00440041ec2f0039
:102dec008f80400049ff070060ac2b00113b2a008c
:102dfc004f999600df999600000269008182690064
:102e0c00c4a79e00d5a79e006f999600ff999600c7
:102e1c0000352300a16a2500000269008182690047
:102e2c00e4a79e00f5a79e000fa196009fa1960017
:102e3c0070192900d177260000026900818269008f
:102e4c0084af9e0095af9e002fa19600bfa1960067
:102e5c00c02d220001272b0000026900818269002d
:102e6c00a4af9e00b5af9e0088ec2f000f04440069
:102e7c0008057800cbe628008004eb000e02200049
:102e8c001806be008904e80048009000d8009000a5
:102e9c005a01be000200680083806800680190003f
:102eac00f801900002006800838068005b02be009d
:102ebc00040068008580680044ff07000001be0024
:102ecc00f00044008c1869008d9069006404440083
:102edc008e8f5400eaff3a00cfea97008581fb0001
:102eec004240a90006003400ffb097000fb89700cd
:102efc000301400031587800820f5000fdff3a006a
:102f0c00ef806100f08010004240a9000c003400fa
:102f1c00cfea97000581fb000201e900dfb19700c1
:102f2c0002804100010141000fba970002014200ea
:102f3c008040eb0001687800820f5000fdff3a00e2
:102f4c00cfea9700ef8062008100ea00cf08de0034
:102f5c000580fb004400de0000804000d0b79f00dd
:102f6c004240a900560034000001eb00e2b79f007c
:102f7c0083f52f008f814100e4814100c3b79f008e
:102f8c0081f52f008f8040000fb89700dffe0700ff
:102f9c000fba970064004200cfb09700dbfe070029
:102fac0085f52f008f824200e88042000fb9970010
:102fbc0068004100d5fe070083f52f008f8141008a
:102fcc00ec8041000fba97006c004200cffe070066
:102fdc0088f52f000f044400080578004bed2f00f6
:102fec008f8545008004eb000e0220001806be0001
:102ffc008904e80048019000d80190005a00be00f6
:10300c00000169008181690068009000f80090005f
:10301c0000006900818069005b01be00020068004d
:10302c008380680010ff07000001be00f000440020
:10303c008c1869008d906900640444008e8f5400d4
:10304c00eaff3a002fb09700bfb097007fb197000e
:10305c00bffe0700ffb19700648141000fb09700dd
:10306c009fb09700bafe07007fb29700680142003c
:10307c006fa89700ffa89700b5fe0700ffb2970056
:10308c006c8142004fa89700dfa89700b0fe0700a4
:10309c006fb097000000e800e0b79f008fb8970072
:1030ac00f080400081bf9f007fb19700700141000c
:1030bc00f2b79f00dfb19700808f5100b0ff3c004a
:1030cc004f0778004f06be004f05be004f04be00f0
:1030dc00cf13b100000006002f14b000889fbe0073
:1030ec008a9fbe008c9fbe008e1f780080bf9f0001
:1030fc00e1ef9f00020478000f007800e014b100ab
:10310c00070009000018eb008f007800e113b100f4
:10311c00470009008018eb000f017800e20ab100ab
:10312c00470009000019eb0021eb2f008f804000b5
:10313c000800780075fe07006400440061eb2f0066
:10314c008f80400071fe070068004400a1eb2f0047
:10315c008f8040006dfe07006c004400e1eb2f00f7
:10316c008f80400069fe070060ac2b00113b2a00e9
:10317c001f999600af999600000269008182690040
:10318c0094a79e00a5a79e003f999600cf99960004
:10319c0000352300a16a25000002690081826900c4
:1031ac00b4a79e00c5a79e005f999600ef99960064
:1031bc0070192900d177260000026900818269000c
:1031cc00d4a79e00e5a79e007f9996008fa196003c
:1031dc00c02d220001272b000002690081826900aa
:1031ec00f4a79e0085af9e0028ec2f000f0444002e
:1031fc0008057800cbe628008004eb000e022000c6
:10320c001806be008904e80048009000d800900021
:10321c005a01be00020068008380680068019000bb
:10322c00f801900002006800838068005b02be0019
:10323c00040068008580680064fe07000001be0081
:10324c00f00044008c1869008d90690064044400ff
:10325c008e8f5400eaff3a00efea97000580fb00de
:10326c004400de00a0b79f004240a9005700340084
:10327c008000eb00f1b79f0022f52f000f014100f9
:10328c006401410092b79f008fb99700b3b79f00bc
:10329c0021f52f008f804000030078001bfe0700f3
:1032ac000fba970064024200e4b79f009fb09700ea
:1032bc000400780015fe07008fba9700e8824200e0
:1032cc00d5b79f0020f52f000f004000e80040000c
:1032dc00050078000dfe07008fb89700ec804000c9
:1032ec00c1b79f0022f52f000f014100ec004100f7
:1032fc004fb0970005fe070028f52f000f0444007f
:10330c0008057800880578008004eb000e02200088
:10331c001806be008904e80048019000d80190000e
:10332c005a02be00040169008581690068009000a2
:10333c00f800900000006900818069004b01be001c
:10334c00020068008380680047fe07000001be0091
:10335c00f00044008c1869008d90690064044400ee
:10336c008e8f5400eaff3a007fa897008fb0970029
:10337c003fb19700f6fd07005fa89700efa89700f4
:10338c006fb19700f2fd07003fa89700cfa89700f8
:10339c005fb19700eefd07004fb197001fa8970093
:1033ac00afa89700eafd0700ffb197008301e80082
:1033bc00f3b79f000fba97007002420084bf9f00c2
:1033cc00afb29700838f5200afff3c004f077800dd
:1033dc004f06be004f05be004f04be002f14b100b7
:1033ec0000000600889fbe0000ff2800450607006d
:1033fc0030ff2800430607000009e200e8013a000c
:10340c00800029003f060700e0478000f14780005c
:10341c00f2702200820f5000e08f58002700360017
:10342c00027122000300200044f50700a2002000d6
:10343c000300200051f507000043b0002a060700e6
:10344c00823e200003002000e0478000f14780000e
:10345c003af50700a20020000300200047f5070002
:10346c000043b000200607004206200003002000a5
:10347c00e0478000f147800030f50700a2002000f3
:10348c00030020003df507000043b00016060700be
:10349c00a200200003002000e0478000f1478000dc
:1034ac0026f50700a20020000300200033f50700da
:1034bc000043b0000c0607005200370000c2b300f6
:1034cc0009060700e0478000f1478000723e2000ab
:1034dc00820f5000e08f58001d003600823e200005
:1034ec000300200015f50700a200200003002000b7
:1034fc0022f507000043b000fb0507004206200040
:10350c0003002000e0478000f14780000bf5070026
:10351c00a20020000300200018f507000043b000b3
:10352c00f1050700a200200003002000e047800006
:10353c00f147800001f50700a200200003002000e5
:10354c000ef507000043b000e70507002d0037001b
:10355c0000c2b300e4050700e0478000f14780009b
:10356c0032062000820f5000e08f58001300360006
:10357c004206200003002000f0f40700a200200007
:10358c0003002000fdf407000043b000d60507003f
:10359c00a200200003002000e0478000f1478000db
:1035ac00e6f40700a200200003002000f3f407005b
:1035bc000043b000cc0507001200370000c2b30076
:1035cc00c9050700e0478000f1478000e90f500073
:1035dc00e08f580009003600a200200003002000f4
:1035ec00d6f40700a200200003002000e3f407003b
:1035fc000043b000bc0507000200370000c2b30056
:10360c00b9050700a200200003002000e04780005d
:10361c00f1478000d9f407000043b000b205070061
:10362c0010012900b705070050012900b505070056
:10363c0002c9bf000080fb00d2cc2c000201b800f4
:10364c004319de006a11b900020050000043b000bb
:10365c00a505070010012900aa050700d0012900c3
:10366c00a805070030022900a60507004049800084
:10367c0062f02f0000014100813e2000810f5100bb
:10368c0003003600a00229009e05070059003700f0
:10369c00713e2000810f5000200036004300de00f8
:1036ac00510c22000100b8004408de00d8cc2c00dc
:1036bc000801b8004319de006a11b900020050007d
:1036cc000043b00088050700404980004200de003e
:1036dc00b14721000100b8000100d1000801b80079
:1036ec004319de006a11b900020050000043b0001b
:1036fc007d050700404980000800b8004308de0043
:10370c000804b8004349de006a11b90002005000f9
:10371c000043b000740507002c00370000c2b30052
:10372c00710507004049800031062000810f5000d0
:10373c00150036004200de00b14721000100b80040
:10374c000100d100d8cc2c000801b8004319de00d0
:10375c006a11b900020050000043b0006205070076
:10376c00404980000800b8004308de000804b80097
:10377c004349de006a11b900020050000043b0005a
:10378c00590507001100370000c2b30056050700a9
:10379c0040498000e90f50000a003600d1cc2c00c3
:1037ac000101b8004318de000101b8004319de0026
:1037bc006a11b900020050000043b0004a0507002e
:1037cc000200370000c2b30047050700e0c2b30097
:1037dc004505070040498000d2cc2c000201b800fe
:1037ec004319de006a11b900020050000043b0001a
:1037fc003d0507000003290042050700600329006e
:10380c004005070060498000e90f500003003e00ae
:10381c00a00229003b05070088003700f170220048
:10382c00810f50002b0036004400de007134200064
:10383c000100b8004308de00d8cc2c000801b80009
:10384c004319de006a11b900020050000043b000b9
:10385c0025050700604980004300de00510c220062
:10386c000100b8004408de000801b8004319de006e
:10387c006a11b900020050000043b0001a0507009d
:10388c00604980004200de00b14721000100b80011
:10389c000100d1000801b8004319de006a11b9001b
:1038ac00020050000043b0000f0507006049800083
:1038bc000800b8004308de000804b8004349de00e5
:1038cc006a11b900020050000043b0000605070061
:1038dc005200370000c2b3000305070060498000a6
:1038ec00713e2000810f5000200036004300de00a6
:1038fc00510c22000100b8004408de00d8cc2c008a
:10390c000801b8004319de006a11b900020050002a
:10391c000043b000f404070061498000c208de00d7
:10392c00b04721000008b8000100d1000801b80020
:10393c004319de006a11b900020050000043b000c8
:10394c00e9040700604980000800b8004308de0065
:10395c000804b8004349de006a11b90002005000a7
:10396c000043b000e00407002c00370000c2b30095
:10397c00dd0407006049800031062000810f5000f3
:10398c00150036004200de00b14721000100b800ee
:10399c000100d100d8cc2c000801b8004319de007e
:1039ac006a11b900020050000043b000ce040700b9
:1039bc00604980000800b8004308de000804b80025
:1039cc004349de006a11b900020050000043b00008
:1039dc00c50407001100370000c2b300c204070081
:1039ec0060498000e90f50000a003600d1cc2c0051
:1039fc000101b8004318de000101b8004319de00d4
:103a0c006a11b900020050000043b000b604070070
:103a1c000200370000c2b300b30407006049800005
:103a2c00d2cc2c000201b8004319de006a11b90097
:103a3c00020050000043b000ab040700d003290083
:103a4c00b004070000ff2800ae0407001004290092
:103a5c00ac040700d8cc2c00c04980000800b8008a
:103a6c004308de000801b8004319de006a11b900f2
:103a7c00020050000043b0009b040700c0498000c6
:103a8c000801b8004319de006a11b90002005000a9
:103a9c000043b00094040700700429009904070047
:103aac00b04980000800b8004308de000801b800e7
:103abc004319de006a11b900020050000043b00047
:103acc0089040700b04980000801b8004319de00e2
:103adc006a11b900020050000043b00082040700d4
:103aec007004290087040700a04980000800b80072
:103afc004308de000801b8004319de006a11b90062
:103b0c00020050000043b00077040700a049800079
:103b1c000804b8004349de006a11b90002005000e5
:103b2c000043b00070040700100129007504070061
:103b3c009004290073040700704980006f01500045
:103b4c0061042000810f510003003600300529006c
:103b5c006c04070010003700d8cc2c000800b8000b
:103b6c004308de000801b8004319de006a11b900f1
:103b7c00020050000043b0005b0407007049800055
:103b8c000804b8004349de006a11b9000200500075
:103b9c000043b000540407006005290059040700d5
:103bac0000ff2800570407004f04be000000060069
:103bbc00fe874700889fbe008a9fbe008c9fbe0078
:103bcc008e1f7800f50307003e0407003082a80022
:103bdc0033c2a800cde2a800cd02a800c005290080
:103bec0048040700700a290046040700f00b29005e
:103bfc0044040700d8cc2c00004b80000800b8000f
:103c0c004308de000801b8004319de006a11b90050
:103c1c00020050000043b00033040700e0c2b300c0
:103c2c0031040700004b80000804b8004349de0053
:103c3c006a11b900020050000043b0002a040700ca
:103c4c0000ff28002f0407000000eb000ffa07000c
:103c5c0062c9bf00fef907000000e0000d003a0049
:103c6c00a00c29002704070062c9bf004404070008
:103c7c00200e2900230407000000eb004f077800fa
:103c8c004f06be004f05be004f04be00ef01b10051
:103c9c00000006000040eb0092fb0700cd02a900db
:103cac000421ef00f0ca230000088800f1ff28006f
:103cbc00200580008080600000002300010070005f
:103ccc00200588009460a8000001280020088800c6
:103cdc004d9120000e6a28000c32200061fd2f004f
:103cec0081804700521329000f000900b258780058
:103cfc0062fd2f000f01410001c1b300e0448000c0
:103d0c00f5fc0700e2478000f347800061004100aa
:103d1c00e0804900e0478800f1478800026a2800eb
:103d2c0013002000820f5000838f580002003a00cd
:103d3c00fc28ef00fe28ef00ea4480000a0078001f
:103d4c00b085fb000b488800904078002390200041
:103d5c0081497800884880009948800002e1200061
:103d6c00030020000800be00a4f20700c049880030
:103d7c0002e12000030020000800be00e0f2070072
:103d8c00c2032000030020009cf20700b049880009
:103d9c00c2032000030020000800be00d8f2070078
:103dac00a04988000b00e000b7003a002a419000bf
:103dbc0063902000824978003a40900007e9b700f0
:103dcc004811dd000080fb00000141008001eb0088
:103ddc0000002c0021012000d8f20700800578009b
:103dec00504988004a40900004e9b700da4090003e
:103dfc0052902000014978004800dd008180fb00d2
:103e0c00010040000058b800e00f5000e08f58004f
:103e1c0002003d00f03fb0000180b000c609dd009b
:103e2c004a01de0002817100f2b79f004a89de0070
:103e3c0082bf9f00ffb197003349880003017800cf
:103e4c006110b80097f207000004be006158b8007a
:103e5c0094f207000801be00cbf207000001be007f
:103e6c000800be00b6f3070002002400c361240062
:103e7c0092f40700104a8800214a880002002400ae
:103e8c00c3612400aef3070069f6070032d62100a7
:103e9c00b399230089f40700104a8800214a88004e
:103eac00f2f02c00b3b52300c0f207000001be00f5
:103ebc000000200001f82300a1f3070002002800f5
:103ecc0083382400b0f20700f0498800014a8800ca
:103edc00020020000311240078f4070002002000e7
:103eec00030a240096f3070002002000032024009c
:103efc00aef2070002002000031224006ff407004a
:103f0c004df2070040498800e8448000684090006a
:103f1c000ae9b700f8409000b3902000814978007e
:103f2c005a4980004800dd008180fb000100400000
:103f3c000050b800e00f5000e08f580002003d0028
:103f4c00f03fb0000180b0004609dd00ca01de0080
:103f5c0083017100b3b79f00ca89de00c3b79f000d
:103f6c003fb097006101b8000e10b800810041000d
:103f7c006151b80021f20700224d2c00f3ff2f00f5
:103f8c000000410081804900c2272000030020006e
:103f9c001af20700704988000848900008e9b70039
:103fac009848900093902000814978004800dd00eb
:103fbc008180fb00010040000050b800e00f500071
:103fcc00e08f580002003d00f03fb0000180b000cf
:103fdc004609dd00ca01de0083017100d3b79f00e2
:103fec00ca89de00e3b79f005fb097006049880084
:103ffc00ea0f500012003600000055008000eb0064
:10400c0028f20700104a8800214a880092c2250035
:10401c00f3fc23004af30700304a8800414a880029
:10402c0002002000832c240024f40700020020004e
:10403c008324240042f30700fff107006049880045
:10404c00c01029002f030700b01129002d03070011
:10405c00e4fc070002c9bf000080fb000000400028
:10406c00008046000008eb00cde2a9000f003700ed
:10407c000000e900feff3a005c4a8800cde2a8008f
:10408c00f0f8070015ff3700b01129001d030700d9
:10409c00d4fc070002c9bf000080fb0000004000f8
:1040ac00008046000008eb00cde2a9000c0078006f
:1040bc00efff37000200fa00889fbe000004780072
:1040cc0081447800b00480004400de006140600050
:1040dc00a0ff9f009680a900cc62a9004340de009f
:1040ec000074a000a00307004540dd000044a000c0
:1040fc009d030700094078009b030700cc62a800d1
:10410c00aff8970061c06000610060004400dd0002
:10411c00b10480000140a10081007000b10488004e
:10412c004f04be000080fa00000006000200fa00f6
:10413c00881f780001447800b1048000c408de00b8
:10414c00e1c06000c1ff9f009680a900cc62a9006d
:10415c00850307000840780083030700cc62a800a1
:10416c00cff8970061c06000610060004400dd0082
:10417c00b10480000140a10081007000b1048800ee
:10418c004f0478000080fa00000006000200fa00dc
:10419c00b1048000c408de00e1c06000e1ff9f00b4
:1041ac009680a900cc62a9006f0307007703070073
:1041bc00cc62a8006ff99700e1406100e1806000db
:1041cc00c408dd00b20480000240a100028170002e
:1041dc00b20488000080fa00000006000200fa0019
:1041ec00881f780000047800b00480004400de00d2
:1041fc0061406000c0ff9f009680a900cc62a900be
:10420c004340de000074a000570307004540dd006a
:10421c00550307005d030700cc62a8004ff9970017
:10422c00e1406100e1806000c408dd00b204800060
:10423c000240a10002817000b20488004f04780093
:10424c000080fa0000000600faa8a9000000060091
:10425c00c202ab0001003a008680a800fac8bf0079
:10426c000008a30007003200f0072000a408e300b8
:10427c0003003600a428ef00fa08a900010037005b
:10428c00a428ec00a18f2000914078000000eb00e6
:10429c000158a3008a0032000268ef000c28ef00de
:1042ac00c0ccb300c18a20009140780000c06000ef
:1042bc00c1c8b300814f50005600320007003e00c9
:1042cc0001c8b300814f50002400320081c8b300f4
:1042dc00814f50005a003a003400370081ccb300b3
:1042ec00814f500004003200c1ccb300814f50000c
:1042fc0053003a0010003700b0c8bf00e14f400037
:10430c0004003a00b1c8bf00e14f400001003a0080
:10431c000248a80002e8a800208b2000204088005a
:10432c00aac8bf007340500008e8b700a08b20005b
:10433c00304088004500370002e8a800808b200040
:10434c0020408800aac8bf007940500008e8b70098
:10435c00008c2000304088003c0037000248a80048
:10436c0002e8a8001000200060408800e18a2000cc
:10437c0091407800e080200001487800f18a20000c
:10438c0091407800f080200001487800008b2000dc
:10439c0020408800aac8bf006b40500008e8b70056
:1043ac00208b20003040880028003700b0c8bf00a8
:1043bc00e14f400004003a00b1c8bf00e14f40009b
:1043cc0001003a000248a80002e8a80010002000f2
:1043dc0060408800e18a200091407800e080200055
:1043ec0001487800f18a200091407800f08020008c
:1043fc0001487800208b200020408800aac8bf000c
:10440c006d40500008e8b700408b20003040880019
:10441c000e00370002e8a800100020006040880061
:10442c00708b200020408800aac8bf007340500049
:10443c0008e8b700a08b200030408800030037004c
:10444c0081ff07000000eb001d003700abc8bf0068
:10445c000080fb000038a300030032007aff070045
:10446c000000eb001600370067006000e10f500001
:10447c0005003200e30f5000070032000000e0009e
:10448c00090032000c0037000208a9000228a9001c
:10449c00100020000a0037000208a8000228a9001a
:1044ac0010002000060037000208a8000228a8000f
:1044bc00100020000200370063ff07000000eb0033
:1044cc00000006006b4150008000eb00ef4f5100e4
:1044dc000e003e00ece8b7008080fb00eb80500043
:1044ec00c408dd003140b30000202000f1fe0700bd
:1044fc0041c0b300d0c6b3000cff07008040eb00f6
:10450c00d0c6b30009ff070011002000010078009d
:10451c0000000600889fbe00cca2a900c01220009b
:10452c000000e900feff3a00cca2a800c012200057
:10453c000000e900feff3a0071c0b30050c5b300a3
:10454c00fafe070048c5b300084078000fff0700cb
:10455c0067006000fcff3a00803e20000000e9008c
:10456c00feff3a0011c0b300b0c1b300effe07006c
:10457c0080c0eb0070c0b300ecfe070080c0eb0005
:10458c0090c0b300e9fe070080c0eb0030c0b30060
:10459c00e6fe070080c0eb0050c0b300e3fe07004e
:1045ac00b9c0b3000004eb0008007800a808b40000
:1045bc00800078009140780009407800dbfe07000d
:1045cc000804e80089c4e800e80f5400f6ff3a003c
:1045dc0031c0b30000202000b6fe070021c0b3009c
:1045ec0010202000b3fe070001c8b30020202000db
:1045fc00b0fe07008040eb0030202000adfe07002d
:10460c0001c9b30060202000aafe070001c8b30056
:10461c0070202000a7fe070001c1b30080202000fd
:10462c00a4fe070011c0b30000222000a1fe070069
:10463c0001c8b30050c7b300bcfe070001c4b300ef
:10464c00d0c7b300b9fe070001c6b300f0c7b30072
:10465c00b6fe070081c9b30010c3b300b3fe070058
:10466c0051c9b300d0c5b300b0fe0700f92020003b
:10467c00080a200009007800d8fe0700000064003a
:10468c00880f5000fbff3a0061ceb30050c6b30058
:10469c00a6fe070031c0b3000020200085fe0700f5
:1046ac0021c0b3001020200082fe07008040eb00e8
:1046bc00ecc8bf0083ff07004f04be0000000600db
:1046cc000080fb00d2cc2c000201b800c318de0025
:1046dc006a09b90002405000c608dd00e54f5000e1
:1046ec00020036008143b00013003700e44f500045
:1046fc00020036000143b0000f003700e34f5000ba
:10470c00020036008142b0000b003700e24f50002f
:10471c00020036000142b00007003700e14f5000a4
:10472c0002003600f8c04000030037000004e0002f
:10473c0001003200f0c04000302020005dfe070078
:10474c00100020000000060001017800b040780045
:10475c00038f20008149780010427800138f2000cd
:10476c008449780002007800b0417800e28e200085
:10477c000349780010417800f48e2000024a78003a
:10478c0070c0b30069fe0700118f200091407800c3
:10479c0090c0b30065fe0700e18e200091407800c8
:1047ac0030c0b30061fe0700f18e2000914078000c
:1047bc0050c0b3005dfe0700100020000000060092
:1047cc00f0874700889fbe008a9fbe008e1f78002e
:1047dc008003780078875700001f7800010f78005d
:1047ec00e2b79f00f3b79f0084bf9f0005077800d6
:1047fc00864578000028a30002003200100020003b
:10480c00e0b79f000738a300020032000000eb0065
:10481c00f0b79f006380630039c0b300e10f500014
:10482c00050032008004780009f0a7008904ea0032
:10483c008904e900cf4cde000964a0006fb5970035
:10484c00d8c0b3000a00e0000100320078c0b30009
:10485c00ffb097000100e0000200320008c4e8003d
:10486c0001003700684444004702b20001022000f6
:10487c00818f530001003a000954a000e30f50004f
:10488c0007003a0010002000f0b79f00cfb097004f
:10489c000150a100c1b79f008044eb0078c0b30069
:1048ac00884078000000eb0002fe07008b404400bb
:1048bc0010002000fffd0700894078002000200038
:1048cc00fcfd07004fb1970063006100e30f50003f
:1048dc000b003a0001c8b30030002000f5fd0700c2
:1048ec00b18e2000914078000140e800ebe8b70061
:1048fc0040002000effd070059c0b3004400370012
:10490c000a00e0000b0032007fb097000000e000ce
:10491c000400320081c8b30030002000e5fd070020
:10492c000e00370081ccb30030002000e1fd070001
:10493c000a0037007fb09700e10f500004003a00e6
:10494c00c1c8b30030002000dafd070003003700b7
:10495c00c1ccb30030002000d6fd0700b18e200082
:10496c00914078000140e800ebe8b70040002000df
:10497c00d0fd07008ff0970050002000cdfd070000
:10498c009ff0970060002000cafd0700cfb1970090
:10499c00648061000800320080c0eb0070002000d1
:1049ac00c4fd070080c0eb0080002000c1fd0700a3
:1049bc0099c0b300160037000004eb006fb09700ed
:1049cc000000e000090032005fb49700b8407800a6
:1049dc0070002000b7fd0700984078008000200090
:1049ec00b4fd070099c0b30009003700dfb0970091
:1049fc00088040009040780067004400adfd07003f
:104a0c000804e800e80f5400f8ff3a00f9c0b300be
:104a1c000004eb007fb097000000e0000d003200b6
:104a2c000945e8000980fb00018f200091407800c7
:104a3c00a0fd07000a44e8000a80fb00118f20004b
:104a4c00914078009bfd07000b04e0000d003a003c
:104a5c001500370008007800a808b4008000780022
:104a6c009140780008c044000080fb0091fd0700d5
:104a7c000804e800e80f5400f6ff3a0068c444004c
:104a8c00f1ff37000e0578008a047800b9407800f1
:104a9c000880fb000844e80086fd07000ac05400ab
:104aac008b4f5000f9ff3900fa08a8004202200091
:104abc00cfb097000281600011c0b300000220004b
:104acc00800f510001003a0051c0b30070c3b30015
:104adc0096fd07006e805700340107001fbc97003d
:104aec00afbc97004a9c20000b002000c202ab0018
:104afc0001003a008680a800fac8bf000008a30095
:104b0c0008003a00a18f200091407800100020008e
:104b1c000128a30012003200fa48a9000000eb00a3
:104b2c000f0037006e805700200107001fb9970057
:104b3c00afb9970008005100898059008a0f5000c6
:104b4c008b8f5800e9ff360072fe0700e18e2000c3
:104b5c00008f2000fcfe0700fa08a9000000eb0003
:104b6c004f0778004f05be004f04be000f01b10087
:104b7c000000060030458800414588003008800060
:104b8c00ebe8b700b0c0b300ece8b70061fe07007b
:104b9c00fa68ef001000200000000600e01320006f
:104bac001012880000002800001288008220a80043
:104bbc00f0ff2700601988006ae0a8006980a8004f
:104bcc00cc62a800c862a900cd82a800c982a90045
:104bdc00c902a900c9e2a900c8e2a800c9c2a8007c
:104bec008680a9009680a800c202ab0001003a00a2
:104bfc008680a800000006000000060000000600e9
:104c0c000400fa00881f7800cae2ab000d003a00dd
:104c1c000040eb005209e20027003a001800200087
:104c2c00984a880066805700e00007005fb897003c
:104c3c00efb89700a04a8800b14a88000840780075
:104c4c001d003700cbc2ab000d003a000040eb005a
:104c5c005209e20018003a0010002000904a880027
:104c6c0066805700d10007005fb89700efb8970037
:104c7c00a04a8800b14a880020c0b3000e0037005b
:104c8c0066805700c9000700a24a8000b34a800022
:104c9c005fb89700efb8970002015000838158006d
:104cac000040eb00f1ff2300810f5100e08f590011
:104cbc00010036005229ef004f0478000080fa0002
:104ccc0000000600c0002000c011880087c0a900a9
:104cdc003222ef00000820008011880031e2a80089
:104cec003342a8000000060002102000931180003f
:104cfc0083006100fdff32000080fb00a0118800e2
:104d0c0000000600881f7800000478001840780026
:104d1c000004e000050032000804e800f2ff070080
:104d2c00384078000004e000fcff3a004f047800a3
:104d3c0000000600010024003204800002806000a4
:104d4c00fdff3200b011800087c0a90000000600f2
:104d5c00889fbe00004478000880fb004400de0001
:104d6c006914290069407800dfff07006f046400b4
:104d7c0069407c00dcff07004f04be000000060009
:104d8c00889fbe008a1f78008084fb00d0cc2c004a
:104d9c000048b800430cde000880fb006a142900b0
:104dac006a407800d0ff07006a40b9008084540044
:104dbc008984fb006ac07c00cbff07004f0578009c
:104dcc004f04be00000006000400fa000001be0003
:104ddc0081022000019ab9000110b8008100420044
:104dec00e0bf9f00f1bf9f006fb89700ffb897001e
:104dfc00c002b1000180b100e0bf9f00f1bf9f0075
:104e0c006fb89700ffb89700e00f5000e08f580084
:104e1c00100034006fb89700ffb89700e00f5000f7
:104e2c00e08f58000b0034006fb89700ffb8970064
:104e3c006b005000e0805800e0bf9f00f1bf9f0066
:104e4c006fb89700ffb89700e00f5000e08f580044
:104e5c00f5ff3c000080fa00000006000200fa009a
:104e6c00889fbe008a9fbe00000578004bc0b3002f
:104e7c0098012000090020000e003700ebf79f007e
:104e8c006ff097008040e900e1f79f000004e0001c
:104e9c00070032000800be00cbff07006ff0970040
:104eac008040e900e1f79f000004e000f9ff3a00c0
:104ebc000a05e9000a00e000f0ff3a004f05be00c9
:0c4ecc004f04be000080fa000000060049
:020000040000fa
:104ed8004e0900000a000000000000006009000000
:104ee80004000000020000000b0019000000000090
:104ef800fc080000520000000000000058090000f3
:104f0800080000000200000088776600554433005e
:104f18002211000000080000a400000000000000aa
:104f2800640900000200000000000000a40800005e
:104f380058000000000000006609000002000000a0
:104f480000000000680900000400000000000000e4
:104f58006c09000002000000000000006e0900005b
:0c4f68000200000000000000000000003b
:020000040000fa
:104f74008540a900411280000080fb004012880097
:104f8400014020002204800002806000fdff320006
:104f9400000006000040eb00f5ff0700401280000f
:104fa40000000600800220008008880011e1a800ab
:104fb4000000060080007800320880008218780023
:0c4fc400520880008208780000000600ff
:020000040000fa
:0200000401f009
:04000c00820000006e
:020000040000fa
:0200000401f009
:04001000520000009a
:020000040000fa
:0200000401f009
:040014005100000097
:020000040000fa
:0200000401f009
:04001800f0000000f4
:020000040000fa
:0200000401f009
:04001c00c10000001f
:00000001FF
