:020000040000fa
:080000000002040000000000f2
:020000040000fa
:04000800ac03000045
:020000040000fa
:04000c00ac03000041
:020000040000fa
:04001000ac0300003d
:020000040000fa
:04001400ac03000039
:020000040000fa
:04001800ac03000035
:020000040000fa
:04001c00ac03000031
:020000040000fa
:04002000ac0300002d
:020000040000fa
:04002400ac03000029
:020000040000fa
:04002800ac03000025
:020000040000fa
:04002c00ac03000021
:020000040000fa
:04003000ac0300001d
:020000040000fa
:04003400ac03000019
:020000040000fa
:04003800ac03000015
:020000040000fa
:04003c00ac03000011
:020000040000fa
:04004000ac0300000d
:020000040000fa
:04004400ac03000009
:020000040000fa
:04004800ac03000005
:020000040000fa
:04004c00ac03000001
:020000040000fa
:04005000ac030000fd
:020000040000fa
:04005400cc020000da
:020000040000fa
:04005800ac030000f5
:020000040000fa
:04005c00ac030000f1
:020000040000fa
:04006000ac030000ed
:020000040000fa
:04006400ac030000e9
:020000040000fa
:04006800ac030000e5
:020000040000fa
:04006c00ac030000e1
:020000040000fa
:04007000ac030000dd
:020000040000fa
:04007400ac030000d9
:020000040000fa
:040078000a03000077
:020000040000fa
:04007c00ac030000d1
:020000040000fa
:04008000ac030000cd
:020000040000fa
:04008400ac030000c9
:020000040000fa
:04008800ac030000c5
:020000040000fa
:04008c00ac030000c1
:020000040000fa
:04009000ac030000bd
:020000040000fa
:04009400ac030000b9
:020000040000fa
:04009800ac030000b5
:020000040000fa
:04009c00ac030000b1
:020000040000fa
:0400a000ac030000ad
:020000040000fa
:0400a400ac030000a9
:020000040000fa
:0400a800ac030000a5
:020000040000fa
:0400ac00ac030000a1
:020000040000fa
:0400b000ac0300009d
:020000040000fa
:0400b400ac03000099
:020000040000fa
:0400b800ac03000095
:020000040000fa
:0400bc00ac03000091
:020000040000fa
:0400c000ac0300008d
:020000040000fa
:0400c400ac03000089
:020000040000fa
:0400c800ac03000085
:020000040000fa
:0400cc00ac03000081
:020000040000fa
:0400d000ac0300007d
:020000040000fa
:0400d400ac03000079
:020000040000fa
:0400d800ac03000075
:020000040000fa
:0400dc00ac03000071
:020000040000fa
:0400e000ac0300006d
:020000040000fa
:0400e400ac03000069
:020000040000fa
:0400e800ac03000065
:020000040000fa
:0400ec00ac03000061
:020000040000fa
:0400f000ac0300005d
:020000040000fa
:0400f400ac03000059
:020000040000fa
:0400f800ac03000055
:020000040000fa
:0400fc00ac03000051
:020000040000fa
:04010000ac0300004c
:020000040000fa
:04010400ac03000048
:020000040000fa
:04010800ac03000044
:020000040000fa
:04010c00ac03000040
:020000040000fa
:04011000ac0300003c
:020000040000fa
:04011400ac03000038
:020000040000fa
:04011800ac03000034
:020000040000fa
:04011c00ac03000030
:020000040000fa
:04012000ac0300002c
:020000040000fa
:04012400ac03000028
:020000040000fa
:04012800ac03000024
:020000040000fa
:04012c00ac03000020
:020000040000fa
:04013000ac0300001c
:020000040000fa
:04013400ac03000018
:020000040000fa
:04013800ac03000014
:020000040000fa
:04013c00ac03000010
:020000040000fa
:04014000ac0300000c
:020000040000fa
:04014400ac03000008
:020000040000fa
:04014800ac03000004
:020000040000fa
:04014c00ac03000000
:020000040000fa
:04015000ac030000fc
:020000040000fa
:04015400ac030000f8
:020000040000fa
:04015800ac030000f4
:020000040000fa
:04015c00ac030000f0
:020000040000fa
:04020800ac03000043
:020000040000fa
:04020c00ac0300003f
:020000040000fa
:04021000ac0300003b
:020000040000fa
:04021400ac03000037
:020000040000fa
:04021800ac03000033
:020000040000fa
:04021c00ac0300002f
:020000040000fa
:04022000ac0300002b
:020000040000fa
:04022400ac03000027
:020000040000fa
:04022800ac03000023
:020000040000fa
:04022c00ac0300001f
:020000040000fa
:04023000ac0300001b
:020000040000fa
:04023400ac03000017
:020000040000fa
:04023800ac03000013
:020000040000fa
:04023c00ac0300000f
:020000040000fa
:04024000ac0300000b
:020000040000fa
:04024400ac03000007
:020000040000fa
:04024800ac03000003
:020000040000fa
:04024c00ac030000ff
:020000040000fa
:04025000ac030000fb
:020000040000fa
:04025400cc020000d8
:020000040000fa
:04025800ac030000f3
:020000040000fa
:04025c00ac030000ef
:020000040000fa
:04026000ac030000eb
:020000040000fa
:04026400ac030000e7
:020000040000fa
:04026800ac030000e3
:020000040000fa
:04026c00ac030000df
:020000040000fa
:04027000ac030000db
:020000040000fa
:04027400ac030000d7
:020000040000fa
:040278000a03000075
:020000040000fa
:04027c00ac030000cf
:020000040000fa
:04028000ac030000cb
:020000040000fa
:04028400ac030000c7
:020000040000fa
:04028800ac030000c3
:020000040000fa
:04028c00ac030000bf
:020000040000fa
:04029000ac030000bb
:020000040000fa
:04029400ac030000b7
:020000040000fa
:04029800ac030000b3
:020000040000fa
:04029c00ac030000af
:020000040000fa
:0402a000ac030000ab
:020000040000fa
:0402a400ac030000a7
:020000040000fa
:0402a800ac030000a3
:020000040000fa
:0402ac00ac0300009f
:020000040000fa
:0402b000ac0300009b
:020000040000fa
:0402b400ac03000097
:020000040000fa
:0402b800ac03000093
:020000040000fa
:0402bc00ac0300008f
:020000040000fa
:0402c000ac0300008b
:020000040000fa
:0402c400ac03000087
:020000040000fa
:0402c800ac03000083
:020000040000fa
:0402cc00ac0300007f
:020000040000fa
:0402d000ac0300007b
:020000040000fa
:0402d400ac03000077
:020000040000fa
:0402d800ac03000073
:020000040000fa
:0402dc00ac0300006f
:020000040000fa
:0402e000ac0300006b
:020000040000fa
:0402e400ac03000067
:020000040000fa
:0402e800ac03000063
:020000040000fa
:0402ec00ac0300005f
:020000040000fa
:0402f000ac0300005b
:020000040000fa
:0402f400ac03000057
:020000040000fa
:0402f800ac03000053
:020000040000fa
:0402fc00ac0300004f
:020000040000fa
:04030000ac0300004a
:020000040000fa
:04030400ac03000046
:020000040000fa
:04030800ac03000042
:020000040000fa
:04030c00ac0300003e
:020000040000fa
:04031000ac0300003a
:020000040000fa
:04031400ac03000036
:020000040000fa
:04031800ac03000032
:020000040000fa
:04031c00ac0300002e
:020000040000fa
:04032000ac0300002a
:020000040000fa
:04032400ac03000026
:020000040000fa
:04032800ac03000022
:020000040000fa
:04032c00ac0300001e
:020000040000fa
:04033000ac0300001a
:020000040000fa
:04033400ac03000016
:020000040000fa
:04033800ac03000012
:020000040000fa
:04033c00ac0300000e
:020000040000fa
:04034000ac0300000a
:020000040000fa
:04034400ac03000006
:020000040000fa
:04034800ac03000002
:020000040000fa
:04034c00ac030000fe
:020000040000fa
:04035000ac030000fa
:020000040000fa
:04035400ac030000f6
:020000040000fa
:04035800ac030000f2
:020000040000fa
:04035c00ac030000ee
:020000040000fa
:10040000cf9020000edf20000e01880000000000c9
:10041000000020000000e000020032000001200087
:100420002002880014000700ef0007000000e00031
:1004300003003a00c08421000100200002003700c0
:100440000000200001002000810f70000100320038
:1004500014000700000020000000e000020032004d
:100460000000020000000000a214020000000000d2
:100470000040da000000fe004440a90000322000e5
:100480000000e0000300320000002000a00188000e
:100490004440a800000006008a1f78008b1f7800e7
:1004a0000000060091018800800478000000eb0045
:1004b0001a003700e284440032a0b4009905ba0063
:1004c000e284440032a0b4009906ba00e2844400f9
:1004d00032a0b4000006eb00476fde00fd07b2005b
:1004e000636ce10003003a00ebff07000000eb0043
:1004f0000a003700606ce10004003a00005deb0088
:100500008b05e900fdff3e00040037006168e10053
:10051000010032000086eb000b00070019c7ba008b
:100520001905ba000e04e00003003a000a00e000da
:10053000e0ff3a0000000600fe07b2009e018800be
:100540008a047800f5ff3700395dba008b05e900b1
:100550000c003200295dba008b05e900080032006a
:100560000c00e00003003a00e284440032a0b40032
:10057000f5ff370019ddba008b05e900faff3a00f4
:100580008904e800e184440032a0b40000000600c1
:10059000000000000000000000a0fe003400f80091
:1005a000881f780008002000a80188004f04780008
:1005b0008560a900d608e20007003a00100020007c
:1005c000b04688003011800030118000301180006a
:1005d000301180000c00370010002000c046880059
:1005e0009560a90030118000004888000010b2001a
:1005f000e04688002242ab0002003a000000e00022
:10060000010032000029ef003400f9000080fe00f4
:100610000040060000a0fe003600f800849fbe00e7
:10062000869fbe00889fbe008a1f78003400f800b5
:1006300004002000a40188000200fa009680ab00ac
:100640003c0032008680ab003a0032008680a90070
:1006500020c6b3008a050700e0ff9f000008a30042
:1006600002003200d208a9009028ef000038a30051
:100670002a003200d2c8bf000058a30024003a006c
:1006800041c0b30030c7b30065050700003020004b
:100690008f05070000c0e80096e8b700c1c2b300ac
:1006a000814f500013003e00d2a8a800180020007f
:1006b000884478006a89200000302000080040004b
:1006c0008305070000757c008944e8000984fb006d
:1006d00096c8bf000080fb000080e800800f540037
:1006e000f5ff340011c0b300b0c1b3004c050700e2
:1006f0000300370011c0b300b0c1b30048050700c4
:100700008040eb0030c7b300450507000300370009
:1007100011c0b300b0c1b30041050700eff8970066
:1007200070c060000300320001c8b30090c5b30080
:100730003b0507000080fa003400f9004f057800ff
:100740004f04be004f03be004f02be003600f9004a
:100750000080fe00004006000040da000000fe00bd
:10076000889fbe0080047800504880000000e000b0
:1007700005003a000000eb000e0007000084eb00cb
:100780000000e00008003500584880000900e00043
:100790000500320009004400060007000000e000e8
:1007a00001003d000084eb00080078004f04be000b
:1007b00000000600800078000100e00003003a001d
:1007c0000000200050488800000005000080eb0079
:1007d00002002000828f500002003e005148880035
:1007e0000000eb0000000600000005000200fa0017
:1007f000889fbe000000e00001003a0010002000c9
:100800000004e8000800a100404880000000e80063
:100810000000a10040488800000020000000e00027
:1008200009003200e10f540001003e0028002000c2
:1008300008007800f2fd0700290020000000e00019
:1008400022003a00010037008004eb00404880009d
:100850003148800000805000800f540011003600a5
:1008600008804400d0bf9f00668057001a00070030
:10087000800078000000eb000100e000130032006f
:100880000100e8000000a10031488000810f500005
:100890000100320040488800dfb8970001004000a6
:1008a00030488800414880000900e0000300320021
:1008b0000100780008187800010037000100780076
:1008c0000884440088804000414888004f04be00ee
:1008d0000080fa0000000600900078000000eb00a5
:1008e0000100e00005003500010078009cff0700d2
:1008f000e10f400001003a000000eb00000006009c
:020000040000fa
:10090000150e000007000000312a0000231c000023
:100910004d4600003f380000696200005b54000053
:10092000857e000077700000a19a0000938c000083
:10093000bdb60000afa80000d9d20000cbc40000b3
:10094000f5ee0000e7e00000110a000003fc0000e3
:100950002d2600001f180000494200003b34000013
:10096000655e000057500000817a0000736c000043
:100970009d9600008f880000b9b20000aba4000073
:10098000d5ce0000c7c00000f1ea0000e3dc0000a3
:100990000d060000fff80000292200001b140000d3
:1009a000453e000037300000615a0000534c000003
:1009b0007d7600006f680000999200008b84000033
:1009c000b5ae0000a7a00000d1ca0000c3bc000063
:1009d000ede60000dfd8000009020000fbf4000093
:1009e000251e000017100000413a0000332c0000c3
:1009f0005d5600004f480000797200006b640000f3
:100a0000012300004567000089ab0000cdef000026
:100a1000fedc0000ba98000076540000321000009e
:100a2000d6900000e9fe0000cce100003db70000d8
:100a300016b6000014c2000028fb00002c050000c0
:100a40002b6700009a7600002abe000004c3000055
:100a5000aa44000013260000498600000699000001
:100a60009c42000050f4000091ef0000987a0000d2
:100a7000335400000b430000edcf0000ac620000d7
:100a8000e4b300001ca90000c9080000e8950000bc
:100a900080df000094fa0000758f00003fa6000080
:100aa00047070000a7fc0000f373000017ba00001e
:100ab000835900003c190000e68500004fa80000a3
:100ac000686b000081b2000071640000da8b0000e6
:100ad000f8eb00000f4b0000705600009d35000041
:100ae0001e2400000e5e000063580000d1a200002a
:100af000252200007c3b00000121000078870000d7
:100b0000d4000000465700009fd300002752000089
:100b10004c36000002e70000a0c40000c89e0000a0
:100b2000eabf00008ad2000040c7000038b50000cc
:100b3000a3f70000f2ce0000f961000015a100004b
:100b4000e0ae00005da400009b3400001a550000d8
:100b5000ad93000032300000f58c0000b1e30000de
:100b60001df60000e22e000082660000ca60000050
:100b7000c029000023ab00000d5300004e6f0000a1
:100b8000d5db000037450000defd00008e2f0000a1
:100b900003ff00006a7200006d6c00005b510000f2
:100ba0008d1b0000af920000bbdd0000bc7f000089
:100bb00011d900005c4100001f1000005ad800004d
:100bc0000ac1000031880000a5cd00007bbd0000f7
:100bd0002d740000d0120000b8e50000b4b0000091
:100be00089690000974a00000c960000777e00009b
:100bf00065b90000f1090000c56e0000c684000060
:100c000018f000007dec00003adc00004d200000f0
:100c100079ee00005f3e0000d7cb000039480000ad
:100c2000c6ba0000b1a3000050330000aa5600006d
:100c3000979100007d670000dc22000070b2000088
:100c4000150e000007000000312a0000231c0000e0
:100c50004d4600003f380000696200005b54000010
:100c6000857e000077700000a19a0000938c000040
:100c7000bdb60000afa80000d9d20000cbc4000070
:100c8000f5ee0000e7e00000110a000003fc0000a0
:100c90002d2600001f180000494200003b340000d0
:100ca000655e000057500000817a0000736c000000
:100cb0009d9600008f880000b9b20000aba4000030
:100cc000d5ce0000c7c00000f1ea0000e3dc000060
:100cd0000d060000fff80000292200001b14000090
:100ce000453e000037300000615a0000534c0000c0
:100cf0007d7600006f680000999200008b840000f0
:100d0000b5ae0000a7a00000d1ca0000c3bc00001f
:100d1000ede60000dfd8000009020000fbf400004f
:100d2000251e000017100000413a0000332c00007f
:100d30005d5600004f480000797200006b640000af
:100d4000d6900000e9fe0000cce100003db70000b5
:100d500016b6000014c2000028fb00002c0500009d
:100d60002b6700009a7600002abe000004c3000032
:100d7000aa440000132600004986000006990000de
:100d80009c42000050f4000091ef0000987a0000af
:100d9000335400000b430000edcf0000ac620000b4
:100da000e4b300001ca90000c9080000e895000099
:100db00080df000094fa0000758f00003fa600005d
:100dc00047070000a7fc0000f373000017ba0000fb
:100dd000835900003c190000e68500004fa8000080
:100de000686b000081b2000071640000da8b0000c3
:100df000f8eb00000f4b0000705600009d3500001e
:100e00001e2400000e5e000063580000d1a2000006
:100e1000252200007c3b00000121000078870000b3
:100e2000d4000000465700009fd300002752000066
:100e30004c36000002e70000a0c40000c89e00007d
:100e4000eabf00008ad2000040c7000038b50000a9
:100e5000a3f70000f2ce0000f961000015a1000028
:100e6000e0ae00005da400009b3400001a550000b5
:100e7000ad93000032300000f58c0000b1e30000bb
:100e80001df60000e22e000082660000ca6000002d
:100e9000c029000023ab00000d5300004e6f00007e
:100ea000d5db000037450000defd00008e2f00007e
:100eb00003ff00006a7200006d6c00005b510000cf
:100ec0008d1b0000af920000bbdd0000bc7f000066
:100ed00011d900005c4100001f1000005ad800002a
:100ee0000ac1000031880000a5cd00007bbd0000d4
:100ef0002d740000d0120000b8e50000b4b000006e
:100f000089690000974a00000c960000777e000077
:100f100065b90000f1090000c56e0000c68400003c
:100f200018f000007dec00003adc00004d200000cd
:100f300079ee00005f3e0000d7cb0000394800008a
:020000040000fa
:100f400000000000000006007e0307000000e00033
:100f50002e0032008268ef0010408000c200de00e8
:100f6000e1806000124480000200a1000281700054
:100f70008000d100e48060000220a10002817000a6
:100f8000e30060000100a2008100e900cf08de005c
:100f9000c408dd000240a10002817000c200de0032
:100fa0000102b2000250a1000281700012448800c8
:100fb0000078a300020032000408f8008608f90057
:100fc00008c8bf008ae8b7000608f8008808f900da
:100fd0008288ab00020032002568a80001003700bb
:100fe0002568a8000004e0000600320025c8bf0004
:100ff0000048a30003003a0025c8bf000058a30022
:10100000020032002568a9004c030700000006001a
:10101000ec8747008e1f78008103780082007800fb
:101020000041eb00c2f79f0003f0a7008301ea0034
:101030000301ea004f11de00c6ff2f00afb9970091
:1010400006836100060371000001780002f0a7002a
:101050000201ea008202e900cf2ade00c529dd0094
:101060000650a1000683710061006000c201dd002e
:10107000060078000020a10000807100610262007b
:101080004322dd000030a100000072008001eb006f
:10109000d3bf9f000201ea004f11de00c2bf9f00d4
:1010a000c62add000060a100008072000070a00070
:1010b0006c875700001f7800010f7800e7bf9f0082
:1010c0004682200016437800058120000702780040
:1010d000780407002468ef004f077800cf00b100c4
:1010e00000000600000278008001eb000301780098
:1010f0003141800010002000c5ff070000000600fd
:10110000020278008001eb0000017800314180008c
:1011100003007800beff0700000006008081fb008e
:1011200092c0b3000440bc000083200060417900fd
:101130000000eb000278a300060032006919b90034
:101140008082200002004000010178001100200090
:10115000ebff0700000006000001eb009041780063
:1011600091cf510009003a0067014000d04178005a
:10117000d1cf510004003a00820f5000fbff3a002b
:1011800012002000010037000001eb00020078008f
:10119000000006002568a900e8020700000006001c
:1011a000881f7800004478008040eb0008407800f9
:1011b00081030700800078000000eb000100e000e0
:1011c0000400320088407800008020000148780048
:1011d000100020004f047800000006000200fa0012
:1011e000881f7800000478002568ef000083200045
:1011f000a28820008040eb00014878006900400090
:10120000820f5000fcff3a00ce0707002468ef0071
:1012100040232100304188006000b800818f200009
:101220000010a0000030a1000040a1000050a1006b
:101230000060a000610464004244dd000001780009
:101240000220a100020074000000a1000a050700ae
:101250000080eb00e0bf9f006182200064805700a7
:10126000f603070000c8bf00cdff070001c8bf009c
:101270004400dd000004a0008ee8b7009680a800be
:10128000100020004f0478000080fa0000000600e3
:101290002dff070025c8bf004300de00610060008d
:1012a0000000060000000600e34f500007003e006b
:1012b00001e8b7004400dd00e1882000914078009b
:1012c000efc06000014070008ee8b700000006002b
:1012d0008008eb00b1107800820120003082fb0012
:1012e0008002eb00820178008301e90003003300f3
:1012f0000402420085824a00fbff370091186a0011
:1013000091906a0068015100e80f4100f3ff3a0034
:1013100000000600480ade00050020008201780077
:1013200084597800400ade000500200084497800d6
:10133000c80ade00c809dd004802de000482710030
:101340002441980030419800000006000002be00d1
:10135000820178008301e9000300330004024200a7
:1013600085824a00fbff3700030220000281510002
:101370000201e900030033008100d1000080d300a6
:10138000fbff37000400700085807000000006003d
:101390000c00fa00889fbe008a9fbe006022b80041
:1013a000e4b79f00f5b79f007481570004a9be0001
:1013b000a4bf9f00b5bf9f00d6ff070071805700f4
:1013c000ed80570001027800036a28005081fb007d
:1013d000e3687900840f5000fcff3a00f480570066
:1013e0006c805700baff07006fb49700ffb49700f6
:1013f000d20020000800be00d4ff07000005be0098
:10140000720120000800be00d0ff070000006d0040
:1014100081806d0008006800898068004f05be006b
:101420004f04be000080fa00000006001000fa0021
:10143000889fbe008a9fbe008c9fbe006022b800bd
:10144000a4b79f00b5b79f007c81570004a9be00d8
:10145000e4b79f00f5b79f00aeff07007980570003
:10146000f580570001027800036a28005081fb00d4
:10147000e3687900840f5000fcff3a00fc805700bd
:101480007480570092ff07002fb49700bfb49700f5
:10149000220020000800be00acff07000005be00cf
:1014a000a20020000800be00a8ff07000006be0042
:1014b000220120000800be00a4ff070080bf9f009b
:1014c00091bf9f00820120000800be009fff07001f
:1014d0000c056d008d856d0008046d0089846d001c
:1014e0000fba97009fba970004046c0085846c00c3
:1014f00000006c0081806c004f06be004f05be00ee
:101500004f04be000080fa0000000600cf13b000b8
:10151000889fbe008a9fbe008c9fbe008e1f7800f1
:10152000f0b79f00c1ef9f00020478002003200065
:10153000aefc070080bf9f00d0b79f008f007800ef
:101540008114b100070009008018eb000f0178003a
:101550008213b100470009000019eb008f017800e9
:10156000830ab100470009008019eb0081eb2f00ce
:101570008f8040000800780055ff07006400440099
:10158000c1eb2f008f80400051ff0700680044002e
:1015900001ec2f008f8040004dff07006c004400dd
:1015a00041ec2f008f80400049ff070060ac2b000a
:1015b000113b2a004f999600df99960000026900be
:1015c00081826900c4a79e00d5a79e006f999600ee
:1015d000ff99960000352300a16a250000026900ea
:1015e00081826900e4a79e00f5a79e000fa19600e6
:1015f0009fa1960070192900d1772600000269008a
:101600008182690084af9e0095af9e002fa1960055
:10161000bfa19600c02d220001272b000002690007
:1016200081826900a4af9e00b5af9e0088ec2f00b8
:101630000f04440008057800cb6128008004eb000b
:101640000e0220001806be008904e8004800900041
:10165000d80090005a01be00020068008380680034
:1016600068019000f8019000020068008380680023
:101670005b02be00040068008580680044ff07002c
:101680000001be00f00044008c1869008d906900d4
:10169000640444008e8f5400eaff3a00cfea9700ba
:1016a0008581fb004240a90006003400ffb097008e
:1016b0000fb897000301400031587800820f5000a6
:1016c000fdff3a00ef806100f08010004240a90069
:1016d0000c003400cfea97000581fb000201e9000d
:1016e000dfb1970002804100010141000fba97006d
:1016f000020142008040eb0001687800820f500038
:10170000fdff3a00cfea9700ef8062008100ea0017
:10171000cf08de000580fb004400de0000804000b2
:10172000d0b79f004240a900560034000001eb00f2
:10173000e2b79f0083f52f008f814100e4814100d3
:10174000c3b79f0081f52f008f8040000fb897002e
:10175000dffe07000fba970064004200cfb0970089
:10176000dbfe070085f52f008f824200e8804200f3
:101770000fb9970068004100d5fe070083f52f00e0
:101780008f814100ec8041000fba97006c0042004d
:10179000cffe070088f52f000f04440008057800ed
:1017a0004bed2f008f8545008004eb000e022000da
:1017b0001806be008904e80048019000d801900096
:1017c0005a00be0000016900818169006800900034
:1017d000f800900000006900818069005b01be0094
:1017e000020068008380680010ff07000001be004f
:1017f000f00044008c1869008d9069006404440076
:101800008e8f5400eaff3a002fb09700bfb09700c8
:101810007fb19700bffe0700ffb1970064814100d0
:101820000fb097009fb09700bafe07007fb29700f5
:10183000680142006fa89700ffa89700b5fe070057
:10184000ffb297006c8142004fa89700dfa8970075
:10185000b0fe07006fb097000000e800e0b79f00ff
:101860008fb89700f080400081bf9f007fb1970044
:1018700070014100f2b79f00dfb19700808f5100e7
:10188000b0ff3c004f0778004f06be004f05be007a
:101890004f04be00cf13b100000006002f14b000ab
:1018a000889fbe008a9fbe008c9fbe008e1f78005e
:1018b00080bf9f00e1ef9f00020478000f007800d6
:1018c000e014b100070009000018eb008f00780059
:1018d000e113b100470009008018eb000f01780008
:1018e000e20ab100470009000019eb0021eb2f00cc
:1018f0008f8040000800780075fe070064004400f7
:1019000061eb2f008f80400071fe070068004400eb
:10191000a1eb2f008f8040006dfe07006c0044009b
:10192000e1eb2f008f80400069fe070060ac2b00c8
:10193000113b2a001f999600af999600000269009a
:101940008182690094a79e00a5a79e003f999600fa
:10195000cf99960000352300a16a25000002690096
:1019600081826900b4a79e00c5a79e005f9996007a
:10197000ef99960070192900d177260000026900be
:1019800081826900d4a79e00e5a79e007f999600fa
:101990008fa19600c02d220001272b0000026900b4
:1019a00081826900f4a79e0085af9e0028ec2f007d
:1019b0000f04440008057800cb6128008004eb0088
:1019c0000e0220001806be008904e80048009000be
:1019d000d80090005a01be000200680083806800b1
:1019e00068019000f80190000200680083806800a0
:1019f0005b02be00040068008580680064fe07008a
:101a00000001be00f00044008c1869008d90690050
:101a1000640444008e8f5400eaff3a00efea970016
:101a20000580fb004400de00a0b79f004240a900f3
:101a3000570034008000eb00f1b79f0022f52f0023
:101a40000f0141006401410092b79f008fb99700d8
:101a5000b3b79f0021f52f008f804000030078006e
:101a60001bfe07000fba970064024200e4b79f0014
:101a70009fb097000400780015fe07008fba97000a
:101a8000e8824200d5b79f0020f52f000f004000ec
:101a9000e8004000050078000dfe07008fb89700b1
:101aa000ec804000c1b79f0022f52f000f014100dc
:101ab000ec0041004fb0970005fe070028f52f000d
:101ac0000f04440008057800880578008004eb00c6
:101ad0000e0220001806be008904e80048019000ac
:101ae000d80190005a02be00040169008581690096
:101af00068009000f8009000000069008180690093
:101b00004b01be00020068008380680047fe0700aa
:101b10000001be00f00044008c1869008d9069003f
:101b2000640444008e8f5400eaff3a007fa89700b7
:101b30008fb097003fb19700f6fd07005fa89700b0
:101b4000efa897006fb19700f2fd07003fa897003c
:101b5000cfa897005fb19700eefd07004fb1970047
:101b60001fa89700afa89700eafd0700ffb19700f4
:101b70008301e800f3b79f000fba9700700242009c
:101b800084bf9f00afb29700838f5200afff3c002d
:101b90004f0778004f06be004f05be004f04be0041
:101ba0002f14b100000006000200fa00889fbe005a
:101bb0000004780081447800b00480004400de0016
:101bc00061406000a0ff9f009680a900c4e2a900c8
:101bd0004340de000074a0004d0507004540dd00d5
:101be0000044a0004a0507000940780048050700a6
:101bf000c4e2a800aff8970061c060006100600017
:101c00004400dd00b10480000140a10081007000ab
:101c1000b10488004f04be000080fa0000000600f6
:101c20000200fa00881f780001447800b1048000a7
:101c3000c408de00e1c06000c1ff9f009680a900db
:101c4000c4e2a9003205070008407800300507000b
:101c5000c4e2a800cff8970061c060006100600096
:101c60004400dd00b10480000140a100810070004b
:101c7000b10488004f0478000080fa0000000600dc
:101c80000200fa00b1048000c408de00e1c0600078
:101c9000e1ff9f009680a900c4e2a9001c0507008f
:101ca00024050700c4e2a8006ff99700e140610035
:101cb000e1806000c408dd00b20480000240a100a1
:101cc00002817000b20488000080fa000000060063
:101cd0000200fa00881f780000047800b004800039
:101ce0004400de0061406000c0ff9f009680a900b4
:101cf000c4e2a9004340de000074a0000405070010
:101d00004540dd00020507000a050700c4e2a800ff
:101d10004ff99700e1406100e1806000c408dd00f8
:101d2000b20480000240a10002817000b204880069
:101d30004f0478000080fa0000000600d2a8a90035
:101d400000000600cbc2ab0001003a008680a8006c
:101d5000d2c8bf000008a30007003200f00720002f
:101d60009008e300030036009028ef00d208a90095
:101d7000010037009028ec00218d20009140780070
:101d80000000eb000158a3008a0032000268ef0057
:101d90000c28ef00c0ccb30081892000914078006e
:101da00000c06000c1c8b300814f5000560032002f
:101db00007003e0001c8b300814f500024003200ec
:101dc00081c8b300814f50005a003a0034003700f8
:101dd00081ccb300814f500004003200c1ccb3006d
:101de000814f500053003a00100037009cc8bf00dc
:101df000e14f400004003a009dc8bf00e14f4000a1
:101e000001003a000248a80002e8a800e08920008a
:101e10002040880096c8bf007340500008e8b70013
:101e2000608a2000304088004500370002e8a800a2
:101e3000408a20002040880096c8bf0079405000aa
:101e400008e8b700c08a2000304088003c00370016
:101e50000248a80002e8a8001000200060408800a6
:101e6000a189200091407800e0802000014878009e
:101e7000b189200091407800f0802000014878006e
:101e8000c08920002040880096c8bf006b405000e9
:101e900008e8b700e08920003040880028003700bb
:101ea0009cc8bf00e14f400004003a009dc8bf003d
:101eb000e14f400001003a000248a80002e8a800f3
:101ec0001000200060408800a18920009140780027
:101ed000e080200001487800b1892000914078001e
:101ee000f080200001487800e08920002040880030
:101ef00096c8bf006d40500008e8b700008a200077
:101f0000304088000e00370002e8a80010002000d2
:101f100060408800308a20002040880096c8bf00ba
:101f20007340500008e8b700608a20003040880005
:101f30000300370081ff07000000eb001d003700a1
:101f400097c8bf000080fb000038a30003003200e8
:101f50007aff07000000eb00160037006700600002
:101f6000e10f500005003200e30f5000070032007f
:101f70000000e000090032000c0037000208a90050
:101f80000228a900100020000a0037000208a8005b
:101f90000228a90010002000060037000208a8004f
:101fa0000228a800100020000200370063ff07008d
:101fb0000000eb00000006006b4150008000eb00c9
:101fc000ef4f51000e003e00c4e8b7008080fb00d8
:101fd000eb805000c408dd003140b3000020200039
:101fe000f1fe070041c0b300d0c6b3000cff0700ec
:101ff0008040eb00d0c6b30009ff070011002000ad
:102000000100780000000600889fbe00c4c2a9003d
:10201000c01220000000e900feff3a00c4c2a80080
:10202000c01220000000e900feff3a0071c0b300ba
:1020300050c5b300fafe070048c5b3000840780059
:102040000fff070067006000fcff3a00803e2000a1
:102050000000e900feff3a0011c0b300b0c1b300b8
:10206000effe070080c0eb0070c0b300ecfe07007d
:1020700080c0eb0090c0b300e9fe070080c0eb0019
:1020800030c0b300e6fe070080c0eb0050c0b300d4
:10209000e3fe0700b9c0b3000004eb0008007800bd
:1020a0009408b400800078009140780009407800de
:1020b000dbfe07000804e80089c4e800e80f5400cc
:1020c000f6ff3a0031c0b30000202000b6fe070042
:1020d00021c0b30010202000b3fe070001c8b300e8
:1020e00020202000b0fe07008040eb0030202000c0
:1020f000adfe070001c9b30060202000aafe070062
:1021000001c8b30070202000a7fe070001c1b30082
:1021100080202000a4fe070011c0b3000022200090
:10212000a1fe070001c8b30050c7b300bcfe070002
:1021300001c4b300d0c7b300b9fe070001c6b300a5
:10214000f0c7b300b6fe070081c9b30010c3b300e7
:10215000b3fe070051c9b300d0c5b300b0fe0700fd
:10216000f9202000080a200009007800d8fe0700a6
:1021700000006400880f5000fbff3a0061ceb300fe
:1021800050c6b300a6fe070031c0b30000202000f7
:1021900085fe070021c0b3001020200082fe07004a
:1021a0008040eb00c4c8bf0083ff07004f04be009f
:1021b000000006000080fb00d2cc2c000201b80019
:1021c000c318de006a09b90002405000c608dd00ed
:1021d000e54f5000020036008143b0001300370085
:1021e000e44f5000020036000143b0000f003700fa
:1021f000e34f5000020036008142b0000b00370070
:10220000e24f5000020036000142b00007003700e4
:10221000e14f500002003600f8c0400003003700d4
:102220000004e00001003200f0c040003020200037
:102230005dfe07001000200000000600010178008c
:10224000b0407800838c20008149780010427800eb
:10225000938c20008449780002007800b041780017
:10226000628c20000349780010417800748c2000b3
:10227000024a780070c0b30069fe0700918c20000c
:102280009140780090c0b30065fe0700618c20008b
:102290009140780030c0b30061fe0700718c2000cf
:1022a0009140780050c0b3005dfe07001000200090
:1022b00000000600f0874700889fbe008a9fbe008e
:1022c0008c9fbe008e1f7800800378007c875700ab
:1022d000001f7800010f7800c2b79f00d3b79f009e
:1022e000e4b79f0005067800864578000028a30023
:1022f0000200320010002000c0b79f000738a30082
:10230000020032000000eb00d0b79f006380630042
:1023100039c0b300e10f500005003200800478009e
:1023200009f0a7008904ea008904e900cf4cde0027
:102330000964a0004fb59700d8c0b3000a00e000c0
:102340000100320078c0b300dfb097000100e00068
:102350000200320008c4e80001003700684444006d
:102360004702b20001022000818f530001003a00b1
:102370000954a000e30f500007003a0010002000ad
:10238000d0b79f00afb097000150a100a1b79f0048
:102390008044eb0078c0b300884078000000eb0078
:1023a00001fe07008b40440010002000fefd0700e6
:1023b0008940780020002000fbfd07002fb1970026
:1023c00063006100e30f50000b003a0001c8b30046
:1023d00030002000f4fd0700318c2000914078008f
:1023e0000140e800c3e8b70040002000eefd070010
:1023f00059c0b300440037000a00e0000b0032006f
:102400005fb097000000e0000400320081c8b30014
:1024100030002000e4fd07000e00370081ccb3003f
:1024200030002000e0fd07000a0037005fb0970091
:10243000e10f500004003a00c1c8b3003000200092
:10244000d9fd070003003700c1ccb30030002000e5
:10245000d5fd0700318c2000914078000140e80054
:10246000c3e8b70040002000cffd0700cfe8970089
:1024700050002000ccfd0700dfe89700600020003e
:10248000c9fd0700afb19700648061000800320009
:1024900080c0eb0070002000c3fd070080c0eb008f
:1024a00080002000c0fd070099c0b300160037006f
:1024b0000004eb004fb097000000e000090032007c
:1024c0003fb49700b840780070002000b6fd0700c8
:1024d0009840780080002000b3fd070099c0b30049
:1024e00009003700bfb09700088040009040780096
:1024f00067004400acfd07000804e800e80f540042
:10250000f8ff3a00f9c0b3000004eb005fb0970099
:102510000000e0000d0032000945e8000980fb00e2
:10252000818c2000914078009ffd07000a44e8005c
:102530000a80fb00918c2000914078009afd0700f2
:102540000b04e0000d003a00150037000800780089
:102550009408b400800078009140780008c04400de
:102560000080fb0090fd07000804e800e80f54001d
:10257000f6ff3a0068c44400f1ff37000c0578000c
:102580008a047800b94078000880fb000844e8001d
:1025900085fd07000ac054008b4f5000f9ff390039
:1025a000d208a80042022000afb09700028160006c
:1025b00011c0b30000022000800f510001003a005a
:1025c00051c0b30070c3b30095fd0700728057007f
:1025d000e00207007fb597008fbd97000800240038
:1025e0004c9c20000d002000521680000200640068
:1025f00001003a008680a800d2c8bf000008a300ee
:1026000008003a00218d2000914078001000200041
:102610000128a30012003200d248a9000000eb00fc
:102620000f00370072805700ca0207007fb1970081
:102630008fb997000a0051008b8059008c0f500011
:102640008d8f5800e8ff36006ffe0700618c200078
:10265000808c2000f9fe0700d208a9000000eb00e2
:102660004f0778004f06be004f05be004f04be0066
:102670000f01b1000000060090448800a1448800ca
:1026800030088000c3e8b700b0c0b300c4e8b700aa
:102690005dfe0700d268ef00100020000000060079
:1026a0008008eb00b1107800820120003082fb002e
:1026b0008002eb00820178008301e900030033000f
:1026c0000402420085824a00fbff370091186a002d
:1026d00091906a0068015100e80f4100f3ff3a0051
:1026e00000000600480ade00050020008201780094
:1026f00084597800400ade000500200084497800f3
:10270000c80ade00c809dd004802de00048271004c
:102710002441980030419800000006000002be00ed
:10272000820178008301e9000300330004024200c3
:1027300085824a00fbff370003022000028151001e
:102740000201e900030033008100d1000080d300c2
:10275000fbff370004007000858070000000060059
:102760000c00fa00889fbe008a9fbe006022b8005d
:10277000e4b79f00f5b79f007481570004a9be001d
:10278000a4bf9f00b5bf9f00d6ff07007180570010
:10279000ed80570001027800035128005081fb00b2
:1027a000e3687900840f5000fcff3a00f480570082
:1027b0006c805700baff0700d20020006fb097006e
:1027c000ffb09700e1fa0700000578006fb49700aa
:1027d000ffb49700720120000800be00dbfa07007a
:1027e000cfd5de00cf80de0000006d0081806d005f
:1027f00008006800898068004f05be004f04be00d5
:102800000080fa00000006001000fa00889fbe0059
:102810008a9fbe008c9fbe006022b800a4b79f00b4
:10282000b5b79f007c81570004a9be00e4b79f00a4
:10283000f5b79f00abff070079805700f580570080
:1028400001027800035128005081fb00e368790001
:10285000840f5000fcff3a00fc8057007480570042
:102860008fff07002fb49700bfb49700220020000d
:102870000800be00a9ff07000005be00a20020005e
:102880000800be00a5ff07000006be0022012000d0
:102890000800be00a1ff070080bf9f0091bf9f00fe
:1028a000820120000800be009cff07000c056d009f
:1028b0008d856d0008046d0089846d000fba970046
:1028c0009fba970004046c0085846c0000006c00c3
:1028d00081806c004f06be004f05be004f04be0055
:1028e0000080fa0000000600da68ef00cb22ab009f
:1028f00002003a0010c0b300dae8b700cb02ab0028
:1029000001003a00da28a800cae2ab0001003a0050
:10291000da48a800000006004019880021e3a8005a
:10292000200320000000e900feff3a002023a80059
:102930002003ab00feff32000018800021e3a90055
:1029400000000600af14b000889fbe008a9fbe0042
:102950008c9fbe008e1f780098010700e2ff0700e1
:10296000a0f52f000f00400064004000e0b79f007a
:10297000a1ec2f008f804000ec804000d1b79f0079
:10298000cb82ab0059003a00ea68ef00c462a800ad
:102990008560a9009560a80021e2a800f000200051
:1029a000ddff0700f0468800c800de0081417800a6
:1029b000d28e200003497800eee8b70050002000d6
:1029c000d5ff070000478800c800de00814278007c
:1029d000b48e2000054a7800ece8b700d428ef0058
:1029e0000000eb00ccff070010478800e40f500008
:1029f0000e003e00a1468000e98f50000b003e0013
:102a00000004eb0008007800c3ff070010478800af
:102a1000a14680008100e800a1468800e40f500034
:102a200002003e00e98f5000f6ff3600c800de00cd
:102a300081417800f28e200003497800f0e8b70069
:102a400030002000b4ff070020478800c800de00e7
:102a500081427800148f2000054a7800f2e8b70020
:102a600020002000acff070040478800c800de00bf
:102a700081417800528f200003497800f6e8b700c2
:102a8000500020003101070010002000a2ff0700c5
:102a900030478800c800de0081427800348f200073
:102aa000054a7800f4e8b700c442a800d428ef0033
:102ab000d808e20009003a00180020000800780059
:102ac00022010700d408ec00a0468800d808e200e4
:102ad00002003a00e80f5000f8ff36009560a900a8
:102ae00021e2a900c462a9000200370010c0b300af
:102af000eae8b70000002800001288000000eb00a0
:102b0000b6f9070002c9bf00a5f90700a18e200091
:102b1000914078000281200001497800a38d2000b7
:102b20009341780014812000034a780020c0b3004c
:102b300024e8b700cb82ab00d7003a00d58e200046
:102b4000954278002081200005487800e18e200021
:102b5000914078003281200001497800b38e200036
:102b60009341780044812000034a7800c58e2000fc
:102b7000954278005081200005487800318f200070
:102b8000914078006281200001497800438f200045
:102b90009341780074812000034a7800158f20004b
:102ba000954278008081200005487800218f200020
:102bb000914078009281200001497800a0c0b300c4
:102bc00024e8b700a3ea2f008381470004502800bf
:102bd0000f000900b45978002003200003f7070014
:102be000f0b79f008002780085bf9f000f0078003b
:102bf0006014b100070009000018eb008f00780096
:102c00006113b100470009008018eb000f01780044
:102c1000620ab100470009000019eb00a1eb2f0088
:102c20008f804000a0ea2f000f0040009cfe0700ac
:102c3000e1eb2f008f804000e0ea2f000f00400002
:102c400097fe070021ec2f008f80400020eb2f0023
:102c50000f00400092fe070061ec2f008f804000c3
:102c600060eb2f000f0040008dfe07005f9996007b
:102c7000ef99960060ac2b00113b2a00000269001e
:102c800081826900d4a79e00e5a79e007f999600e7
:102c90008fa1960000352300a16a2500000269007b
:102ca00081826900f4a79e0085af9e001fa1960057
:102cb000afa1960070192900d177260000026900a3
:102cc0008182690094af9e00a5af9e003fa196004f
:102cd000cfa19600c02d220001272b000002690021
:102ce00081826900b4af9e00c5af9e00a8ec2f00a2
:102cf0000f04440008057800cb4728008004eb004f
:102d00000e0220001806be008904e800480090006a
:102d1000d80090005a01be0002006800838068005d
:102d200068019000f801900002006800838068004c
:102d30005b02be00040068008580680088fe070012
:102d40000001be00f00044008c1869008d906900fd
:102d5000640444008e8f5400eaff3a000081200092
:102d6000ffb19700a281200083007800b05878005e
:102d7000820f5000fdff3a008fba97006980420031
:102d80006f8141008040eb0001687800820f5000a5
:102d9000fdff3a00a1f52f008f8040000fb897008b
:102da0003ffe07008fb8970064804000efb09700a7
:102db0003bfe0700a2f52f000f014100e800410093
:102dc0008fb997006880410035fe0700a4f52f00f9
:102dd0000f024200ec0042008fba97006c80420064
:102de0002ffe0700a8f52f000f0444000805780007
:102df000dfb597008004eb000e0220001806be002d
:102e00008904e80048009000d80090005a01be00f4
:102e1000020068008380680068019000f80190005b
:102e200002006800838068005b02be000400680046
:102e3000858068007df9070000017800cf91de00f1
:102e4000f00044008c1869008d906900640444000f
:102e50008e8f5400e9ff3a00028120003fb09700b6
:102e6000cfb097001ffe0700428120001fb09700df
:102e7000afb097001bfe0700828120007fa897005b
:102e80008fb0970017fe0700c28120005fa897004f
:102e9000efa8970013fe07000000eb0091f8070071
:102ea000c4c2a900cc82a80000712200270007003c
:102eb000c442a900b2fe37000400fa000001be00bf
:102ec00081022000019ab9000110b800810042007f
:102ed000e0bf9f00f1bf9f006fb89700ffb8970059
:102ee000c002b1000180b100e0bf9f00f1bf9f00b0
:102ef0006fb89700ffb89700e00f5000e08f5800c0
:102f0000100034006fb89700ffb89700e00f500032
:102f1000e08f58000b0034006fb89700ffb897009f
:102f20006b005000e0805800e0bf9f00f1bf9f00a1
:102f30006fb89700ffb89700e00f5000e08f58007f
:102f4000f5ff3c000080fa00000006000200fa00d5
:102f5000889fbe008a9fbe00000578004bc0b3006a
:102f600098012000090020000e003700ebf79f00b9
:102f70006ff097008040e900e1f79f000004e00057
:102f8000070032000800be00cbff07006ff097007b
:102f90008040e900e1f79f000004e000f9ff3a00fb
:102fa0000a05e9000a00e000f0ff3a004f05be0004
:102fb0004f04be000080fa0000000600000e200052
:102fc000001988002223ef0000f02100201988005a
:102fd00000c12100601988003c23ef003426ef0077
:102fe0003626ef003226ef003022ef005627ef00a2
:102ff0002626ef00e000200040118800600020003d
:10300000001188002222ef00c0e2a900c0c2a9007e
:10301000c9c2a800c9e2a900c942a800c9a2a90062
:10302000c962a900c4e2a800c4c2a900cde2a800f8
:10303000cda2a900cd62a900e013200010128800e3
:103040004022ef008220a8008680a900cbc2ab00fe
:1030500001003a008680a800c882a900c062a900c9
:10306000c082a800cc82a900c462a900c042a90005
:10307000c442a900c922a800c902a800c8e2a80049
:10308000c982a8006aa0a8006ac0a8006ae0a800d7
:0830900069c0a8000000060061
:020000040000fa
:10309800000900000400000002000000ffff190002
:1030a80000000000d4080000240000000000000018
:1030b800f808000008000000020000008877660099
:1030c8005544330022110000000800009000000061
:1030d80000000000040900000200000000000000d9
:1030e80090080000440000000000000006090000ed
:1030f80004000000000000000a09000002000000af
:083108000000000000000000bf
:020000040000fa
:103110008540a900411280000080fb004012880019
:10312000014020002204800002806000fdff320088
:10313000000006000040eb00f5ff07004012800091
:1031400000000600800220008008880011e1a8002d
:1031500000000600800078003208800082187800a5
:0c31600052088000820878000000060081
:020000040000fa
:0200000401f009
:04000000ffffff00ff
:020000040000fa
:0200000401f009
:04000800ffffff00f7
:020000040000fa
:0200000401f009
:04000c008000000070
:020000040000fa
:0200000401f009
:04001000b300000039
:020000040000fa
:0200000401f009
:040014005f00000089
:020000040000fa
:0200000401f009
:04001800f0000000f4
:020000040000fa
:0200000401f009
:04001c00c10000001f
:020000040000fa
:0200000401f009
:040020003f0000009d
:00000001FF
